{
  "address": "0x9A9f2CCfdE556A7E9Ff0848998Aa4a0CFD8863AE",
  "abi": [
    {
      "inputs": [
        {
          "internalType": "string[]",
          "name": "words",
          "type": "string[]"
        },
        {
          "internalType": "bytes",
          "name": "entropy",
          "type": "bytes"
        },
        {
          "internalType": "string",
          "name": "textColor",
          "type": "string"
        }
      ],
      "name": "_renderText",
      "outputs": [
        {
          "internalType": "string",
          "name": "",
          "type": "string"
        }
      ],
      "stateMutability": "pure",
      "type": "function"
    },
    {
      "inputs": [],
      "name": "description",
      "outputs": [
        {
          "internalType": "string",
          "name": "",
          "type": "string"
        }
      ],
      "stateMutability": "view",
      "type": "function"
    },
    {
      "inputs": [
        {
          "internalType": "string[]",
          "name": "words",
          "type": "string[]"
        },
        {
          "internalType": "bytes",
          "name": "entropy",
          "type": "bytes"
        },
        {
          "internalType": "string",
          "name": "base64font",
          "type": "string"
        }
      ],
      "name": "renderSVG",
      "outputs": [
        {
          "internalType": "string",
          "name": "",
          "type": "string"
        }
      ],
      "stateMutability": "pure",
      "type": "function"
    },
    {
      "inputs": [
        {
          "internalType": "string[]",
          "name": "words",
          "type": "string[]"
        },
        {
          "internalType": "bytes",
          "name": "entropy",
          "type": "bytes"
        },
        {
          "internalType": "string",
          "name": "base64font",
          "type": "string"
        }
      ],
      "name": "renderSVGBase64",
      "outputs": [
        {
          "internalType": "string",
          "name": "",
          "type": "string"
        }
      ],
      "stateMutability": "pure",
      "type": "function"
    },
    {
      "inputs": [
        {
          "internalType": "string[]",
          "name": "words",
          "type": "string[]"
        },
        {
          "internalType": "bytes",
          "name": "entropy",
          "type": "bytes"
        },
        {
          "internalType": "string",
          "name": "base64font",
          "type": "string"
        }
      ],
      "name": "renderSVGBase64static",
      "outputs": [
        {
          "internalType": "string",
          "name": "",
          "type": "string"
        }
      ],
      "stateMutability": "pure",
      "type": "function"
    },
    {
      "inputs": [
        {
          "internalType": "string[]",
          "name": "words",
          "type": "string[]"
        },
        {
          "internalType": "bytes",
          "name": "entropy",
          "type": "bytes"
        },
        {
          "internalType": "string",
          "name": "base64font",
          "type": "string"
        }
      ],
      "name": "renderSVGstatic",
      "outputs": [
        {
          "internalType": "string",
          "name": "",
          "type": "string"
        }
      ],
      "stateMutability": "pure",
      "type": "function"
    },
    {
      "inputs": [
        {
          "internalType": "uint256",
          "name": "_tokenId",
          "type": "uint256"
        },
        {
          "internalType": "string[]",
          "name": "words",
          "type": "string[]"
        },
        {
          "internalType": "bytes",
          "name": "entropy",
          "type": "bytes"
        },
        {
          "internalType": "string",
          "name": "base64font",
          "type": "string"
        }
      ],
      "name": "tokenURI",
      "outputs": [
        {
          "internalType": "string",
          "name": "",
          "type": "string"
        }
      ],
      "stateMutability": "pure",
      "type": "function"
    }
  ],
  "transactionHash": "0x813956dced87ac3aebb49f4eaa2ed607cb65dc0d56e0d7190e241d2d0e472d44",
  "args": [],
  "numDeployments": 4,
  "solcInputHash": "8c17e7c2717a10ab88794650c0e74a9b",
  "bytecode": "0x6080806040523461001a576141b09081610020823930815050f35b600080fdfe60806040526004361015610013575b600080fd5b60003560e01c80630403faa4146101095780637284e4161461009657806374a06ecf1461008d57806388508639146100845780638f866a921461007b578063eb5cf9ab146100725763fcb700351461006a57600080fd5b61000e610607565b5061000e6105ef565b5061000e6105d7565b5061000e610463565b5061000e61044d565b60007ffffffffffffffffffffffffffffffffffffffffffffffffffffffffffffffffc36011261000e576101056040516100cf8161015a565b600a81527f5365656420506f656d73000000000000000000000000000000000000000000006020820152604051918291826103f0565b0390f35b61010561011e61011836610350565b91611148565b604051918291826103f0565b507f4e487b7100000000000000000000000000000000000000000000000000000000600052604160045260246000fd5b6040810190811067ffffffffffffffff82111761017657604052565b61017e61012a565b604052565b6020810190811067ffffffffffffffff82111761017657604052565b6060810190811067ffffffffffffffff82111761017657604052565b6080810190811067ffffffffffffffff82111761017657604052565b90601f7fffffffffffffffffffffffffffffffffffffffffffffffffffffffffffffffe0910116810190811067ffffffffffffffff82111761017657604052565b60209067ffffffffffffffff8111610232575b60051b0190565b61023a61012a565b61022b565b7fffffffffffffffffffffffffffffffffffffffffffffffffffffffffffffffe0601f60209267ffffffffffffffff811161027b575b01160190565b61028361012a565b610275565b81601f8201121561000e5780359061029f8261023f565b926102ad60405194856101d7565b8284526020838301011161000e57816000926020809301838601378301015290565b9080601f8301121561000e578135906102e782610218565b926102f560405194856101d7565b828452602092838086019160051b8301019280841161000e57848301915b8483106103235750505050505090565b823567ffffffffffffffff811161000e57869161034584848094890101610288565b815201920191610313565b60607ffffffffffffffffffffffffffffffffffffffffffffffffffffffffffffffffc82011261000e5767ffffffffffffffff9160043583811161000e578261039b916004016102cf565b9260243581811161000e57836103b391600401610288565b9260443591821161000e576103ca91600401610288565b90565b60005b8381106103e05750506000910152565b81810151838201526020016103d0565b7fffffffffffffffffffffffffffffffffffffffffffffffffffffffffffffffe0601f6040936020845261043381518092816020880152602088880191016103cd565b0116010190565b6040519061044782610183565b60008252565b5061010561011e61045d36610350565b916112c7565b5060807ffffffffffffffffffffffffffffffffffffffffffffffffffffffffffffffffc36011261000e5767ffffffffffffffff60243581811161000e576104af9036906004016102cf565b9060443581811161000e576104c8903690600401610288565b9060643590811161000e576104e1903690600401610288565b908251156105ca575b60208381015192600180805b610539575b61010561011e8789888861052f8961051285613c0b565b9261051b61398e565b015193610529828288611148565b956112c7565b93806004356109e0565b909486518610156105c4576105be82916105b8610556898b61064a565b516040518361056e82955180928c80860191016103cd565b81017f20000000000000000000000000000000000000000000000000000000000000008a8201528251906105aa826021958d87850191016103cd565b0103858101845201826101d7565b9661069c565b916104f6565b946104fb565b6105d261061a565b6104ea565b5061010561011e6105e736610350565b919050612c9d565b5061010561011e61060261045d36610350565b610e75565b5061010561011e61060261011836610350565b507f4e487b7100000000000000000000000000000000000000000000000000000000600052603260045260246000fd5b602091815181101561065f575b60051b010190565b61066761061a565b610657565b507f4e487b7100000000000000000000000000000000000000000000000000000000600052601160045260246000fd5b6001907fffffffffffffffffffffffffffffffffffffffffffffffffffffffffffffffff81146106ca570190565b6106d261066c565b0190565b906106d2602092828151948592016103cd565b604051906106f68261015a565b600482527f6e616d65000000000000000000000000000000000000000000000000000000006020830152565b6040519061072f8261015a565b600b82527f6465736372697074696f6e0000000000000000000000000000000000000000006020830152565b604051906107688261015a565b600a82527f61747472696275746573000000000000000000000000000000000000000000006020830152565b604051906107a18261015a565b600f82527f6261636b67726f756e64436f6c6f7200000000000000000000000000000000006020830152565b604051906107da8261015a565b600582527f696d6167650000000000000000000000000000000000000000000000000000006020830152565b604051906108138261015a565b600d82527f616e696d6174696f6e5f75726c000000000000000000000000000000000000006020830152565b9492909695939196604051978896602088017f7b0000000000000000000000000000000000000000000000000000000000000090528051908160218a01916020019161088a926103cd565b8701917f2c0000000000000000000000000000000000000000000000000000000000000092836021820152815191826022830191602001916108cb926103cd565b01826022820152815191826023830191602001916108e8926103cd565b019060238201526024016108fb916106d6565b7f2c00000000000000000000000000000000000000000000000000000000000000815260010161092a916106d6565b7f2c000000000000000000000000000000000000000000000000000000000000008152600101610959916106d6565b7f2c000000000000000000000000000000000000000000000000000000000000008152600101610988916106d6565b7f7d000000000000000000000000000000000000000000000000000000000000008152037fffffffffffffffffffffffffffffffffffffffffffffffffffffffffffffffe1810183526001016109de90836101d7565b565b6109f090969492959391966140c1565b956040516109fd8161015a565b6007815260208101907f746f6b656e49640000000000000000000000000000000000000000000000000082526040519889927f22000000000000000000000000000000000000000000000000000000000000009283602086015251908160218601610a67926103cd565b8301602181017f223a220000000000000000000000000000000000000000000000000000000000905281519182602483019160200191610aa6926103cd565b0190602482015203600581018852602501610ac190886101d7565b610ac96106e9565b90610ad391613f19565b94610adc610722565b90610ae691613f19565b90610aef61075b565b90610af991613fb4565b91610b02610794565b90610b0c91613f19565b92610b1690610e75565b610b1e6107cd565b90610b2891613f19565b93610b3290610e75565b610b3a610806565b90610b4491613f19565b94610b4e9661083f565b6103ca90610b98565b60206109de919392936040519481610b7887935180928680870191016103cd565b8201610b8c825180938680850191016103cd565b010380855201836101d7565b6103ca90610bdb60405191610bac8361015a565b601d83527f646174613a6170706c69636174696f6e2f6a736f6e3b6261736536342c0000006020840152610d11565b90610b57565b60405190610bee8261019f565b604082527f6768696a6b6c6d6e6f707172737475767778797a303132333435363738392b2f6040837f4142434445464748494a4b4c4d4e4f505152535455565758595a61626364656660208201520152565b9060028201809211610c4e57565b6109de61066c565b9060208201809211610c4e57565b9060018201809211610c4e57565b91908201809211610c4e57565b908160021b917f3fffffffffffffffffffffffffffffffffffffffffffffffffffffffffffffff811603610c4e57565b81810292918115918404141715610c4e57565b90610ccc8261023f565b610cd960405191826101d7565b8281527fffffffffffffffffffffffffffffffffffffffffffffffffffffffffffffffe0610d07829461023f565b0190602036910137565b805115610e6c57610d20610be1565b610d3c610d37610d308451610c40565b6003900490565b610c7f565b91610d4e610d4984610c56565b610cc2565b92835280815182019060208501935b828210610e1057505050600390510680600114610dc757600214610d7f575090565b7fffffffffffffffffffffffffffffffffffffffffffffffffffffffffffffffff7f3d0000000000000000000000000000000000000000000000000000000000000091015290565b507ffffffffffffffffffffffffffffffffffffffffffffffffffffffffffffffffe7f3d3d00000000000000000000000000000000000000000000000000000000000091015290565b90919360049060038094019384516001603f81818460121c16880101519260f893841b8652828282600c1c1689010151841b8387015282828260061c1689010151841b60028701521686010151901b9082015201939190610d5d565b506103ca61043a565b6103ca90610bdb60405191610e898361015a565b601a83527f646174613a696d6167652f7376672b786d6c3b6261736536342c0000000000006020840152610d11565b606a6109de919392936040519485917f3c646566733e3c7374796c653e0000000000000000000000000000000000000060208401527f40666f6e742d66616365207b666f6e742d66616d696c793a202245424749223b602d8401527f7372633a2075726c282200000000000000000000000000000000000000000000604d840152610f4d8151809260206057870191016103cd565b82017f22293b000000000000000000000000000000000000000000000000000000000060578201527f7d3c2f7374796c653e0000000000000000000000000000000000000000000000605a820152610faf8251809360206063850191016103cd565b017f3c2f646566733e00000000000000000000000000000000000000000000000000606382015203604a8101855201836101d7565b60405190610ff18261015a565b600382527f76687300000000000000000000000000000000000000000000000000000000006020830152565b60506109de91939293604051948161103f8793518092602080870191016103cd565b82017f207472616e73666f726d2d6f726967696e3a20353025203530253b200000000060208201527f7472616e73666f726d3d22726f74617465280000000000000000000000000000603c8201526110a1825180936020604e850191016103cd565b017f2922000000000000000000000000000000000000000000000000000000000000604e8201520360308101855201836101d7565b604051906110e38261015a565b600182527f67000000000000000000000000000000000000000000000000000000000000006020830152565b6040519061111c8261015a565b600382527f73766700000000000000000000000000000000000000000000000000000000006020830152565b906103ca929161128861122b61115c6133a0565b83519095906000906003811161129657505061122560045b61117d87613935565b60ff604061118961398e565b0151604051908161119e6020820180936106d6565b03916111d07fffffffffffffffffffffffffffffffffffffffffffffffffffffffffffffffe0938481018352826101d7565b5190209060405161121a60208201928261120e856007907f233030303030300000000000000000000000000000000000000000000000000081520190565b039081018352826101d7565b519020149216612666565b90610eb8565b91611279611266611246602061123f61398e565b015161143b565b9561126061125a611255610fe4565b6134ce565b91613a90565b9061101d565b91604061127161398e565b015190612c9d565b6112816110d6565b918261312e565b9261129161110f565b613241565b600681116112aa5750506112256003611174565b60091090506112bd576112256002611174565b6112256001611174565b906103ca929161128861122b6112db6133a0565b83519095906000906003811161139857505061122560045b6112fc87613935565b60ff604061130861398e565b0151604051908161131d6020820180936106d6565b039161134f7fffffffffffffffffffffffffffffffffffffffffffffffffffffffffffffffe0938481018352826101d7565b5190209060405161138d60208201928261120e856007907f233030303030300000000000000000000000000000000000000000000000000081520190565b519020149216612851565b600681116113ac57505061122560036112f3565b60091090506113bf5761122560026112f3565b61122560016112f3565b604051906113d68261015a565b600482527f31303025000000000000000000000000000000000000000000000000000000006020830152565b6040519061140f8261015a565b600482527f72656374000000000000000000000000000000000000000000000000000000006020830152565b6103ca906115ad603461144c6113c9565b6114546113c9565b9061148061147a6114746040519361146b85610183565b60008552613e9e565b93613e9e565b95613e9e565b6040519586937f77696474683d000000000000000000000000000000000000000000000000000060208601526114c08151809260206026890191016103cd565b84017f6865696768743d0000000000000000000000000000000000000000000000000060268201526114fc825180936020602d850191016103cd565b017f66696c6c3d000000000000000000000000000000000000000000000000000000602d8201526115378251809360206032850191016103cd565b017f200000000000000000000000000000000000000000000000000000000000000060328201526115728251809360206033850191016103cd565b0161159f603382017f20000000000000000000000000000000000000000000000000000000000000009052565b0360148101845201826101d7565b6115b5611402565b613074565b604051906115c78261019f565b602a82527f30203020302e33352030000000000000000000000000000000000000000000006040837f302030203020302031203020302030203020312030203020302030203120302060208201520152565b604051906116268261019f565b602a82527f30203020302e33352030000000000000000000000000000000000000000000006040837f302030203020302030203020302030203020302030203020302030203020302060208201520152565b604051906116858261015a565b600382527f2d313200000000000000000000000000000000000000000000000000000000006020830152565b604051906116be8261015a565b600382527f2d313000000000000000000000000000000000000000000000000000000000006020830152565b604051906116f78261015a565b600282527f2d390000000000000000000000000000000000000000000000000000000000006020830152565b604051906117308261015a565b600282527f2d360000000000000000000000000000000000000000000000000000000000006020830152565b604051906117698261015a565b600282527f2d350000000000000000000000000000000000000000000000000000000000006020830152565b604051906117a28261015a565b600482527f2d342e35000000000000000000000000000000000000000000000000000000006020830152565b604051906117db8261015a565b600282527f2d330000000000000000000000000000000000000000000000000000000000006020830152565b604051906118148261015a565b600182527f36000000000000000000000000000000000000000000000000000000000000006020830152565b6040519061184d8261015a565b600182527f35000000000000000000000000000000000000000000000000000000000000006020830152565b604051906118868261015a565b600382527f342e3500000000000000000000000000000000000000000000000000000000006020830152565b604051906118bf8261015a565b600182527f33000000000000000000000000000000000000000000000000000000000000006020830152565b604051906118f88261015a565b600182527f34000000000000000000000000000000000000000000000000000000000000006020830152565b604051906119318261015a565b600382527f332e3500000000000000000000000000000000000000000000000000000000006020830152565b6040519061196a826101bb565b605782527f6174436f756e743d22696e646566696e69746522202f3e0000000000000000006060837f3c616e696d617465206174747269627574654e616d653d2276616c756573222060208201527f66726f6d3d22302220746f3d2233363022206475723d2231367322207265706560408201520152565b604051906119ef8261015a565b600282527f32320000000000000000000000000000000000000000000000000000000000006020830152565b60405190611a288261015a565b600282527f32300000000000000000000000000000000000000000000000000000000000006020830152565b60405190611a618261015a565b600282527f31300000000000000000000000000000000000000000000000000000000000006020830152565b60405190611a9a8261015a565b600e82527f32323a33383a32383a33383a32320000000000000000000000000000000000006020830152565b60405190611ad38261015a565b600b82527f32303b33303b33303b32300000000000000000000000000000000000000000006020830152565b60405190611b0c8261015a565b601482527f31303b32303b31353b32353b31353b32303b31300000000000000000000000006020830152565b906109de606e60405180947f3c616e696d617465206174747269627574654e616d653d227363616c6522207660208301527f616c7565733d22000000000000000000000000000000000000000000000000006040830152611ba38151809260206047860191016103cd565b81017f22206475723d223136732220726570656174436f756e743d22696e646566696e60478201527f69746522202f3e00000000000000000000000000000000000000000000000000606782015203604e8101855201836101d7565b99979593919b9a98969492909b6040519c8d9b60208d017f3c646566733e3c66696c7465722069643d227668732220783d22302220793d22905260408d017f30222077696474683d2236313622206865696768743d22383839222066696c74905260608d017f6572556e6974733d227573657253706163654f6e5573652220636f6c6f722d69905260808d017f6e746572706f6c6174696f6e2d66696c746572733d2273524742223e3c666546905260a08d017f6c6f6f6420666c6f6f642d6f7061636974793d22302220726573756c743d2242905260c08d017f61636b67726f756e64496d61676546697822202f3e3c6665436f6c6f724d6174905260e08d017f72697820696e3d22536f75726365416c7068612220747970653d226d6174726990526101008d017f78222076616c7565733d2230203020302030203020302030203020302030203090526101208d017f20302030203020302030203020302031323720302220726573756c743d22686190526101408d017f7264416c70686122202f3e3c66654f66667365742064783d220000000000000090526101598d01611da9916106d6565b7f22202f3e3c6665476175737369616e426c757220737464446576696174696f6e81527f3d223222202f3e3c6665436f6d706f7369746520696e323d2268617264416c7060208201527f686122206f70657261746f723d226f757422202f3e3c6665436f6c6f724d617460408201527f72697820747970653d226d6174726978222076616c7565733d220000000000006060820152607a01611e4a916106d6565b7f22202f3e3c6665426c656e64206d6f64653d226e6f726d616c2220696e323d2281527f4261636b67726f756e64496d6167654669782220726573756c743d227465787460208201527f426c75725f706173733122202f3e3c6665436f6c6f724d617472697820696e3d60408201527f22536f75726365416c7068612220747970653d226d6174726978222076616c7560608201527f65733d223020302030203020302030203020302030203020302030203020302060808201527f302030203020302031323720302220726573756c743d2268617264416c70686160a08201527f22202f3e3c66654f66667365742064783d22000000000000000000000000000060c082015260d201611f5d916106d6565b7f22202f3e3c6665476175737369616e426c757220737464446576696174696f6e81527f3d223222202f3e3c6665436f6d706f7369746520696e323d2268617264416c7060208201527f686122206f70657261746f723d226f757422202f3e3c6665436f6c6f724d617460408201527f72697820747970653d226d6174726978222076616c7565733d220000000000006060820152607a01611ffe916106d6565b7f22202f3e3c6665426c656e64206d6f64653d226e6f726d616c2220696e323d2281527f74657874426c75725f70617373312220726573756c743d2274657874426c757260208201527f5f706173733222202f3e3c6665436f6c6f724d617472697820696e3d22536f7560408201527f726365416c7068612220747970653d226d6174726978222076616c7565733d2260608201527f302030203020302030203020302030203020302030203020302030203020302060808201527f3020302031323720302220726573756c743d2268617264416c70686122202f3e60a08201527f3c66654f66667365742064783d2200000000000000000000000000000000000060c082015260ce01612111916106d6565b7f22202f3e3c6665476175737369616e426c757220737464446576696174696f6e81527f3d223222202f3e3c6665436f6d706f7369746520696e323d2268617264416c7060208201527f686122206f70657261746f723d226f757422202f3e3c6665436f6c6f724d617460408201527f72697820747970653d226d6174726978222076616c7565733d220000000000006060820152607a016121b2916106d6565b7f22202f3e3c6665426c656e64206d6f64653d226e6f726d616c2220696e323d2281527f74657874426c75725f70617373322220726573756c743d2274657874426c757260208201527f5f706173733322202f3e3c6665436f6c6f724d617472697820696e3d22536f7560408201527f726365416c7068612220747970653d226d6174726978222076616c7565733d2260608201527f302030203020302030203020302030203020302030203020302030203020302060808201527f3020302031323720302220726573756c743d2268617264416c70686122202f3e60a08201527f3c66654f66667365742064783d2200000000000000000000000000000000000060c082015260ce016122c5916106d6565b7f22202f3e3c6665476175737369616e426c757220737464446576696174696f6e81527f3d223222202f3e3c6665436f6d706f7369746520696e323d2268617264416c7060208201527f686122206f70657261746f723d226f757422202f3e3c6665436f6c6f724d617460408201527f72697820747970653d226d6174726978222076616c7565733d220000000000006060820152607a01612366916106d6565b7f22202f3e3c6665426c656e64206d6f64653d226e6f726d616c2220696e323d2281527f74657874426c75725f70617373332220726573756c743d2274657874426c757260208201527f5f706173733422202f3e3c6665426c656e64206d6f64653d226e6f726d616c2260408201527f20696e3d22536f75726365477261706869632220696e323d2274657874426c7560608201527f725f70617373342220726573756c743d22736861706522202f3e3c666547617560808201527f737369616e426c757220737464446576696174696f6e3d22000000000000000060a082015260b801612453916106d6565b7f2220726573756c743d2274657874426c75725f706173733522202f3e0000000081527f3c666554757262756c656e636520626173654672657175656e63793d222e3031601c8201527f352220747970653d226672616374616c4e6f69736522202f3e00000000000000603c8201526055017f3c6665436f6c6f724d617472697820747970653d22687565526f74617465222081527f76616c7565733d2230223e0000000000000000000000000000000000000000006020820152602b0161251a916106d6565b7f3c2f6665436f6c6f724d61747269783e0000000000000000000000000000000081527f3c6665446973706c6163656d656e744d617020696e3d2274657874426c75725f60108201527f70617373352220784368616e6e656c53656c6563746f723d225222207943686160308201527f6e6e656c53656c6563746f723d224222207363616c653d22000000000000000060508201526068016125bb916106d6565b7f223e00000000000000000000000000000000000000000000000000000000000081526002016125ea916106d6565b7f3c2f6665446973706c6163656d656e744d61703e3c2f66696c7465723e3c2f6481527f6566733e000000000000000000000000000000000000000000000000000000006020820152602401037fffffffffffffffffffffffffffffffffffffffffffffffffffffffffffffffe0810183526109de90836101d7565b6103ca921561284357612677611619565b915b600182146000811561280e575061268e611723565b935b600082156127d957506126a16117ce565b935b600083156127a457506126b46118b2565b925b6000811561276f57506126c7611723565b915b60009115612735575050816126dc611924565b935b6126e661043a565b956000906001810361270e575050816126fd611a54565b975b8161270861043a565b9a611bff565b6002141590506127275781612721611a1b565b976126ff565b816127306119e2565b612721565b6002810361274e575050816127486118eb565b936126de565b6003141590506127665781612761611879565b612748565b81612761611840565b6002830361278657506127806116ea565b916126c9565b506003820361279c576127976116b1565b612780565b612797611678565b600282036127bb57506127b5611879565b926126b6565b50600381036127d1576127cc611840565b6127b5565b6127cc611807565b600285036127f057506127ea611795565b936126a3565b50600384036128065761280161175c565b6127ea565b612801611723565b60028403612825575061281f6116ea565b93612690565b506003830361283b576128366116b1565b61281f565b612836611678565b61284b6115ba565b91612679565b906103ca92600014612a5c57612865611619565b915b6001811460008115612a27575061287c611723565b935b600082156129f2575061288f6117ce565b925b600083156129bd57506128a26118b2565b925b6000811561298857506128b5611723565b915b6000911561294e575050816128ca611924565b935b816128d561195d565b96600189146000811561292a57506128eb611a54565b995b6000911561290857505081612708612903611aff565b611b38565b60021415905061291e5781612708612903611ac6565b81612708612903611a8d565b5060028a036129415761293b611a1b565b996128ed565b6129496119e2565b61293b565b60028103612967575050816129616118eb565b936128cc565b60031415905061297f578161297a611879565b612961565b8161297a611840565b6002830361299f57506129996116ea565b916128b7565b50600382036129b5576129b06116b1565b612999565b6129b0611678565b600282036129d457506129ce611879565b926128a4565b50600381036129ea576129e5611840565b6129ce565b6129e5611807565b60028403612a095750612a03611795565b92612891565b5060038303612a1f57612a1a61175c565b612a03565b612a1a611723565b60028303612a3e5750612a386116ea565b9361287e565b5060038203612a5457612a4f6116b1565b612a38565b612a4f611678565b612a646115ba565b91612867565b90612a7482610218565b612a8160405191826101d7565b8281527fffffffffffffffffffffffffffffffffffffffffffffffffffffffffffffffe0612aaf8294610218565b019060005b828110612ac057505050565b806060602080938501015201612ab4565b907fffffffffffffffffffffffffffffffffffffffffffffffffffffffffffffffff8201918211610c4e57565b906101bc918203918211610c4e57565b60405190612b1b8261015a565b600382527f31323500000000000000000000000000000000000000000000000000000000006020830152565b60405190612b548261015a565b600282527f35350000000000000000000000000000000000000000000000000000000000006020830152565b60405190612b8d8261015a565b600282527f35370000000000000000000000000000000000000000000000000000000000006020830152565b60405190612bc68261015a565b600282527f36320000000000000000000000000000000000000000000000000000000000006020830152565b60405190612bff8261015a565b600282527f36350000000000000000000000000000000000000000000000000000000000006020830152565b60405190612c388261015a565b600282527f37350000000000000000000000000000000000000000000000000000000000006020830152565b60405190612c718261015a565b600282527f39330000000000000000000000000000000000000000000000000000000000006020830152565b805191601583149060148215612fa457506013905b612cbb85612a6a565b916000918260605b8751851015612e195780518015159081612dee575b5015612d435790612cfe91612ced828861064a565b52612cf8818761064a565b5061069c565b94612d24612d0c858961064a565b51945b612d198951612ad1565b8114612d2d5761069c565b93959095612cc3565b85612d38898961064a565b52612cf8888861064a565b805191969115612dd957612d78612dd3612d2492612da7612d64898d61064a565b51612da160405195869460208601906106d6565b7f2000000000000000000000000000000000000000000000000000000000000000815260010190565b906106d6565b037fffffffffffffffffffffffffffffffffffffffffffffffffffffffffffffffe081018352826101d7565b94612d0f565b50612d24612de7858961064a565b5194612d0f565b612e0e9150612e0990612e01888c61064a565b515190610c72565b610c64565b60ff85161038612cd8565b509692509392945050612e2a612b0e565b9060789260068214600014612eda5750505050612e45612c64565b605d939291905b6060936000955b81871115612e7c5750505050506103ca9150612e6d6110d6565b90612e7661043a565b8261312e565b90919293946105b8612ecf91610bdb878787612ec98d612ec38a8f612eb8612eb283612eab87612ebd9561064a565b5198610caf565b60011c90565b612afe565b92610caf565b90610c72565b906135f4565b959493929190612e53565b60098203612efa5750505050612eee612c2b565b604b935b929190612e4c565b600c8203612f175750505050612f0e612c2b565b604b935b612ef2565b600f8203612f335750505050612f2b612bf2565b604193612ef2565b60128203612f4f5750505050612f47612bb9565b603e93612ef2565b15612f6757505050612f5f612b80565b603993612ef2565b919490917fffffffffffffffffffffffffffffffffffffffffffffffffffffffffffffffe801612f1257935050612f9c612b47565b603793612ef2565b60128503612fb55750601290612cb2565b600f8503612fc65750601190612cb2565b600c8503612fd75750601090612cb2565b60098503612fe85750600f90612cb2565b60068503612ffa5750600c905b612cb2565b6003850361300b5750600990612cb2565b906018850315612ff5576040517f08c379a000000000000000000000000000000000000000000000000000000000815260206004820152601660248201527f496e76616c696420776f72647320706572206c696e65000000000000000000006044820152606490fd5b60246109de919392936040519485917f3c0000000000000000000000000000000000000000000000000000000000000060208401526130bd8151809260206021870191016103cd565b82017f200000000000000000000000000000000000000000000000000000000000000060218201526130f98251809360206022850191016103cd565b017f2f3e00000000000000000000000000000000000000000000000000000000000060228201520360048101855201836101d7565b6109de9260269295946040519687937f3c0000000000000000000000000000000000000000000000000000000000000060208601526131778151809260206021890191016103cd565b84017f200000000000000000000000000000000000000000000000000000000000000060218201526131b38251809360206022850191016103cd565b01917f3e00000000000000000000000000000000000000000000000000000000000000928360228201526131f18251809360206023850191016103cd565b017f3c2f000000000000000000000000000000000000000000000000000000000000602382015261322c8251809360206025850191016103cd565b019060258201520360068101855201836101d7565b92602692946103ca9461329e604051938460209485928361326b8185019d8e8151938492016103cd565b830161327f825180938780850191016103cd565b01613292825180938680850191016103cd565b010380865201846101d7565b61338b6040519788957f3c000000000000000000000000000000000000000000000000000000000000008588015283519461331d818601966132e48160218c018a6103cd565b8901917f2000000000000000000000000000000000000000000000000000000000000000602184015283519384916022850191016103cd565b016133567f3e000000000000000000000000000000000000000000000000000000000000009687602284015251809360238401906103cd565b01917f3c2f000000000000000000000000000000000000000000000000000000000000602384015251809360258401906103cd565b019060258201520360068101845201826101d7565b604051907f786d6c6e733d22687474703a2f2f7777772e77332e6f72672f323030302f737660208301527f672220786d6c6e733a786c696e6b3d22687474703a2f2f7777772e77332e6f7260408301527f672f313939392f786c696e6b222077696474683d22313030252220686569676860608301527f743d2231303025222076696577426f783d22302030203631362038383922200060808301527f7072657365727665417370656374526174696f3d22784d6964594d6964206d65609f8301527f657422200000000000000000000000000000000000000000000000000000000060bf8301527f66696c6c3d226e6f6e652220000000000000000000000000000000000000000060c383015260af825260e0820182811067ffffffffffffffff82111761017657604052565b906109de603060405180947f66696c7465723d0000000000000000000000000000000000000000000000000060208301527f220000000000000000000000000000000000000000000000000000000000000060278301527f75726c2823000000000000000000000000000000000000000000000000000000602883015261355f815180926020602d860191016103cd565b81017f2900000000000000000000000000000000000000000000000000000000000000602d8201527f2220000000000000000000000000000000000000000000000000000000000000602e8201520360108101855201836101d7565b604051906135c88261015a565b600482527f74657874000000000000000000000000000000000000000000000000000000006020830152565b919290604080519181830183811067ffffffffffffffff821117613928575b825261361d614047565b8352613628906140c1565b926020808401948552825161363c816101bb565b604781527f454247492c20454220476172616d6f6e64204974616c69632c20476172616d6f828201527f6e64204974616c69632c20454220476172616d6f6e642c20476172616d6f6e64848201527f2c2073657269660000000000000000000000000000000000000000000000000060608201528351946136bc8661015a565b600a86527f64793d22302e34656d220000000000000000000000000000000000000000000083870152516136ef90613e9e565b95516136fa90613e9e565b97845181819251908186808501920191613713926103cd565b81018481017f707800000000000000000000000000000000000000000000000000000000000090520360028101825260220161374f90826101d7565b61375890613e9e565b9061376290613e9e565b9261376c90613e9e565b93519788968388017f783d0000000000000000000000000000000000000000000000000000000000009052805190818560228b019201916137ac926103cd565b8701602281017f793d00000000000000000000000000000000000000000000000000000000000090528151918285602484019201916137ea926103cd565b0190602482017f666f6e742d73697a653d00000000000000000000000000000000000000000000905280518093602e8401920191613827926103cd565b01602e8101613855907f666f6e742d66616d696c793d00000000000000000000000000000000000000009052565b603a01613861916106d6565b7f66696c6c3d0000000000000000000000000000000000000000000000000000008152600501613890916106d6565b7f200000000000000000000000000000000000000000000000000000000000000081526001016138bf916106d6565b7f20000000000000000000000000000000000000000000000000000000000000008152037fffffffffffffffffffffffffffffffffffffffffffffffffffffffffffffffe18101835260010161391590836101d7565b61391d6135bb565b906103ca928261312e565b61393061012a565b613613565b613977600391604051906139488261015a565b600a82527f646973746f7274696f6e000000000000000000000000000000000000000000006020830152613e59565b06600181018091116139865790565b6103ca61066c565b60409081519161399d8361019f565b60005b6060808210156139b657848201526020016139a0565b505080519192506060820167ffffffffffffffff811183821017613a83575b8082526139e18161015a565b600481527f566f696400000000000000000000000000000000000000000000000000000000608084015282528051613a188161015a565b600781527f234639463946390000000000000000000000000000000000000000000000000060208201526020830152805190613a538261015a565b600782527f2330303030303000000000000000000000000000000000000000000000000000602083015282015290565b613a8b61012a565b6139d5565b6103ca6021613ad5604051613aa48161015a565b600881526020947f726f746174696f6e00000000000000000000000000000000000000000000000086830152613e59565b9260018416613b7c57613ae661043a565b905b613b076103e86064613aff6006600a8a04066140c1565b9704066140c1565b90613b6d6040519684613b23899651809286808a0191016103cd565b8501613b37825180938680850191016103cd565b01917f2e0000000000000000000000000000000000000000000000000000000000000081840152835193849187850191016103cd565b010360018101845201826101d7565b604051613b888161015a565b600181527f2d000000000000000000000000000000000000000000000000000000000000008282015290613ae8565b906109de602160405184613bd58296518092602080860191016103cd565b81017f5d0000000000000000000000000000000000000000000000000000000000000060208201520360018101855201836101d7565b613d9a6103ca91610bdb613d44613d94613c5b60405194613c2b8661015a565b600186527f5b000000000000000000000000000000000000000000000000000000000000006020870152516140c1565b613d596025604051613c6c8161015a565b60058152602081017f576f726473000000000000000000000000000000000000000000000000000000815260405190613ca48261015a565b600a825260208201927f74726169745f74797065000000000000000000000000000000000000000000008452604051988994613d0e7f22000000000000000000000000000000000000000000000000000000000000009586602089015251809260218901906103cd565b8501917f223a220000000000000000000000000000000000000000000000000000000000602184015251809360248401906103cd565b019060248201520360058101865201846101d7565b604051613d658161015a565b600581527f76616c75650000000000000000000000000000000000000000000000000000006020820152613f19565b90613d9f565b613bb7565b60236109de919392936040519485917f7b000000000000000000000000000000000000000000000000000000000000006020840152613de88151809260206021870191016103cd565b82017f2c000000000000000000000000000000000000000000000000000000000000006021820152613e248251809360206022850191016103cd565b017f7d0000000000000000000000000000000000000000000000000000000000000060228201520360038101855201836101d7565b90613e986020604051809382613e7881840197888151938492016103cd565b8201613e8c825180938680850191016103cd565b010380845201826101d7565b51902090565b906109de602360405180947f22000000000000000000000000000000000000000000000000000000000000006020830152613ee38151809260206021860191016103cd565b81017f222000000000000000000000000000000000000000000000000000000000000060218201520360038101855201836101d7565b919060256109de916040519485917f220000000000000000000000000000000000000000000000000000000000000091826020850152613f638151809260206021880191016103cd565b83017f223a2200000000000000000000000000000000000000000000000000000000006021820152613f9f8251809360206024850191016103cd565b019060248201520360058101855201836101d7565b60236109de919392936040519485917f22000000000000000000000000000000000000000000000000000000000000006020840152613ffd8151809260206021870191016103cd565b82017f223a000000000000000000000000000000000000000000000000000000000000602182015261403882518093602087850191016103cd565b010360038101855201836101d7565b605a90606e6040510180604052826000935b61408557507fffffffffffffffffffffffffffffffffffffffffffffffffffffffffffffffe001918252565b909260017fffffffffffffffffffffffffffffffffffffffffffffffffffffffffffffffff9101930190600a9060308282060183530480614059565b90811561413f57606e6040510180604052826000935b61410357507fffffffffffffffffffffffffffffffffffffffffffffffffffffffffffffffe001918252565b909260017fffffffffffffffffffffffffffffffffffffffffffffffffffffffffffffffff9101930190600a90603082820601835304806140d7565b905060405161414d8161015a565b600181527f300000000000000000000000000000000000000000000000000000000000000060208201529056fea2646970667358221220e87efbb610bfadfab3ed677444c2fa55b63bbdb8a9350f35668a1abe09d3552164736f6c63430008110033",
  "devdoc": {
    "kind": "dev",
    "methods": {},
    "version": 1
  },
  "userdoc": {
    "kind": "user",
    "methods": {},
    "version": 1
  },
  "storageLayout": {
    "storage": [],
    "types": null
  }
}