{
  "address": "0xe7f1725E7734CE288F8367e1Bb143E90bb3F0512",
  "abi": [
    {
      "inputs": [],
      "stateMutability": "nonpayable",
      "type": "constructor"
    },
    {
      "anonymous": false,
      "inputs": [
        {
          "indexed": true,
          "internalType": "address",
          "name": "owner",
          "type": "address"
        },
        {
          "indexed": true,
          "internalType": "address",
          "name": "spender",
          "type": "address"
        },
        {
          "indexed": true,
          "internalType": "uint256",
          "name": "id",
          "type": "uint256"
        }
      ],
      "name": "Approval",
      "type": "event"
    },
    {
      "anonymous": false,
      "inputs": [
        {
          "indexed": true,
          "internalType": "address",
          "name": "owner",
          "type": "address"
        },
        {
          "indexed": true,
          "internalType": "address",
          "name": "operator",
          "type": "address"
        },
        {
          "indexed": false,
          "internalType": "bool",
          "name": "approved",
          "type": "bool"
        }
      ],
      "name": "ApprovalForAll",
      "type": "event"
    },
    {
      "anonymous": false,
      "inputs": [
        {
          "indexed": true,
          "internalType": "address",
          "name": "user",
          "type": "address"
        },
        {
          "indexed": true,
          "internalType": "address",
          "name": "newOwner",
          "type": "address"
        }
      ],
      "name": "OwnershipTransferred",
      "type": "event"
    },
    {
      "anonymous": false,
      "inputs": [
        {
          "indexed": true,
          "internalType": "address",
          "name": "from",
          "type": "address"
        },
        {
          "indexed": true,
          "internalType": "address",
          "name": "to",
          "type": "address"
        },
        {
          "indexed": true,
          "internalType": "uint256",
          "name": "id",
          "type": "uint256"
        }
      ],
      "name": "Transfer",
      "type": "event"
    },
    {
      "inputs": [
        {
          "internalType": "address",
          "name": "spender",
          "type": "address"
        },
        {
          "internalType": "uint256",
          "name": "id",
          "type": "uint256"
        }
      ],
      "name": "approve",
      "outputs": [],
      "stateMutability": "nonpayable",
      "type": "function"
    },
    {
      "inputs": [
        {
          "internalType": "address",
          "name": "owner",
          "type": "address"
        }
      ],
      "name": "balanceOf",
      "outputs": [
        {
          "internalType": "uint256",
          "name": "",
          "type": "uint256"
        }
      ],
      "stateMutability": "view",
      "type": "function"
    },
    {
      "inputs": [
        {
          "internalType": "uint256",
          "name": "id",
          "type": "uint256"
        },
        {
          "internalType": "address",
          "name": "to",
          "type": "address"
        }
      ],
      "name": "bind",
      "outputs": [],
      "stateMutability": "nonpayable",
      "type": "function"
    },
    {
      "inputs": [
        {
          "internalType": "string[]",
          "name": "_wordsChunk",
          "type": "string[]"
        },
        {
          "internalType": "uint256",
          "name": "_offset",
          "type": "uint256"
        }
      ],
      "name": "commitWords",
      "outputs": [],
      "stateMutability": "nonpayable",
      "type": "function"
    },
    {
      "inputs": [
        {
          "internalType": "bytes",
          "name": "entropy",
          "type": "bytes"
        }
      ],
      "name": "entropyToMnemonic",
      "outputs": [
        {
          "internalType": "uint256[]",
          "name": "",
          "type": "uint256[]"
        }
      ],
      "stateMutability": "pure",
      "type": "function"
    },
    {
      "inputs": [
        {
          "internalType": "bytes",
          "name": "entropy",
          "type": "bytes"
        }
      ],
      "name": "entropyToMnemonicString",
      "outputs": [
        {
          "internalType": "string[]",
          "name": "",
          "type": "string[]"
        }
      ],
      "stateMutability": "view",
      "type": "function"
    },
    {
      "inputs": [],
      "name": "finalizeWords",
      "outputs": [],
      "stateMutability": "nonpayable",
      "type": "function"
    },
    {
      "inputs": [],
      "name": "finalized",
      "outputs": [
        {
          "internalType": "bool",
          "name": "",
          "type": "bool"
        }
      ],
      "stateMutability": "view",
      "type": "function"
    },
    {
      "inputs": [
        {
          "internalType": "uint256",
          "name": "words",
          "type": "uint256"
        }
      ],
      "name": "generateEntropy",
      "outputs": [
        {
          "internalType": "bytes",
          "name": "",
          "type": "bytes"
        }
      ],
      "stateMutability": "view",
      "type": "function"
    },
    {
      "inputs": [
        {
          "internalType": "uint256",
          "name": "words",
          "type": "uint256"
        }
      ],
      "name": "generateMnemonic",
      "outputs": [
        {
          "internalType": "uint256[]",
          "name": "",
          "type": "uint256[]"
        }
      ],
      "stateMutability": "view",
      "type": "function"
    },
    {
      "inputs": [
        {
          "internalType": "uint256",
          "name": "words",
          "type": "uint256"
        }
      ],
      "name": "generateMnemonicString",
      "outputs": [
        {
          "internalType": "string[]",
          "name": "",
          "type": "string[]"
        }
      ],
      "stateMutability": "view",
      "type": "function"
    },
    {
      "inputs": [
        {
          "internalType": "uint256",
          "name": "",
          "type": "uint256"
        }
      ],
      "name": "getApproved",
      "outputs": [
        {
          "internalType": "address",
          "name": "",
          "type": "address"
        }
      ],
      "stateMutability": "view",
      "type": "function"
    },
    {
      "inputs": [],
      "name": "getFont",
      "outputs": [
        {
          "internalType": "string",
          "name": "",
          "type": "string"
        }
      ],
      "stateMutability": "view",
      "type": "function"
    },
    {
      "inputs": [],
      "name": "getMintedIndices",
      "outputs": [
        {
          "internalType": "uint256[]",
          "name": "",
          "type": "uint256[]"
        }
      ],
      "stateMutability": "view",
      "type": "function"
    },
    {
      "inputs": [],
      "name": "getWordlist",
      "outputs": [
        {
          "internalType": "string[2048]",
          "name": "",
          "type": "string[2048]"
        }
      ],
      "stateMutability": "view",
      "type": "function"
    },
    {
      "inputs": [
        {
          "internalType": "uint256[]",
          "name": "indices",
          "type": "uint256[]"
        }
      ],
      "name": "indicesToWords",
      "outputs": [
        {
          "internalType": "string[]",
          "name": "",
          "type": "string[]"
        }
      ],
      "stateMutability": "view",
      "type": "function"
    },
    {
      "inputs": [
        {
          "internalType": "address",
          "name": "",
          "type": "address"
        },
        {
          "internalType": "address",
          "name": "",
          "type": "address"
        }
      ],
      "name": "isApprovedForAll",
      "outputs": [
        {
          "internalType": "bool",
          "name": "",
          "type": "bool"
        }
      ],
      "stateMutability": "view",
      "type": "function"
    },
    {
      "inputs": [
        {
          "internalType": "bytes32",
          "name": "",
          "type": "bytes32"
        }
      ],
      "name": "isEntropyMinted",
      "outputs": [
        {
          "internalType": "bool",
          "name": "",
          "type": "bool"
        }
      ],
      "stateMutability": "view",
      "type": "function"
    },
    {
      "inputs": [],
      "name": "language",
      "outputs": [
        {
          "internalType": "string",
          "name": "",
          "type": "string"
        }
      ],
      "stateMutability": "view",
      "type": "function"
    },
    {
      "inputs": [
        {
          "internalType": "bool",
          "name": "state",
          "type": "bool"
        }
      ],
      "name": "lock",
      "outputs": [],
      "stateMutability": "nonpayable",
      "type": "function"
    },
    {
      "inputs": [],
      "name": "locked",
      "outputs": [
        {
          "internalType": "bool",
          "name": "",
          "type": "bool"
        }
      ],
      "stateMutability": "view",
      "type": "function"
    },
    {
      "inputs": [
        {
          "internalType": "uint256[]",
          "name": "seedIndices",
          "type": "uint256[]"
        }
      ],
      "name": "mint",
      "outputs": [],
      "stateMutability": "payable",
      "type": "function"
    },
    {
      "inputs": [
        {
          "internalType": "uint256[]",
          "name": "wordIndices",
          "type": "uint256[]"
        }
      ],
      "name": "mnemonicToEntropy",
      "outputs": [
        {
          "internalType": "bytes",
          "name": "",
          "type": "bytes"
        }
      ],
      "stateMutability": "pure",
      "type": "function"
    },
    {
      "inputs": [],
      "name": "name",
      "outputs": [
        {
          "internalType": "string",
          "name": "",
          "type": "string"
        }
      ],
      "stateMutability": "view",
      "type": "function"
    },
    {
      "inputs": [],
      "name": "owner",
      "outputs": [
        {
          "internalType": "address",
          "name": "",
          "type": "address"
        }
      ],
      "stateMutability": "view",
      "type": "function"
    },
    {
      "inputs": [
        {
          "internalType": "uint256",
          "name": "id",
          "type": "uint256"
        }
      ],
      "name": "ownerOf",
      "outputs": [
        {
          "internalType": "address",
          "name": "owner",
          "type": "address"
        }
      ],
      "stateMutability": "view",
      "type": "function"
    },
    {
      "inputs": [
        {
          "internalType": "uint256",
          "name": "_tokenId",
          "type": "uint256"
        }
      ],
      "name": "renderSVG",
      "outputs": [
        {
          "internalType": "string",
          "name": "",
          "type": "string"
        }
      ],
      "stateMutability": "view",
      "type": "function"
    },
    {
      "inputs": [
        {
          "internalType": "uint256",
          "name": "_tokenId",
          "type": "uint256"
        }
      ],
      "name": "renderSVGBase64",
      "outputs": [
        {
          "internalType": "string",
          "name": "",
          "type": "string"
        }
      ],
      "stateMutability": "view",
      "type": "function"
    },
    {
      "inputs": [
        {
          "internalType": "uint256[]",
          "name": "seedIndices",
          "type": "uint256[]"
        }
      ],
      "name": "renderSVGBase64FromWords",
      "outputs": [
        {
          "internalType": "string",
          "name": "",
          "type": "string"
        }
      ],
      "stateMutability": "view",
      "type": "function"
    },
    {
      "inputs": [
        {
          "internalType": "uint256",
          "name": "_tokenId",
          "type": "uint256"
        }
      ],
      "name": "renderSVGBase64static",
      "outputs": [
        {
          "internalType": "string",
          "name": "",
          "type": "string"
        }
      ],
      "stateMutability": "view",
      "type": "function"
    },
    {
      "inputs": [
        {
          "internalType": "uint256[]",
          "name": "seedIndices",
          "type": "uint256[]"
        }
      ],
      "name": "renderSVGBase64staticFromWords",
      "outputs": [
        {
          "internalType": "string",
          "name": "",
          "type": "string"
        }
      ],
      "stateMutability": "view",
      "type": "function"
    },
    {
      "inputs": [
        {
          "internalType": "uint256[]",
          "name": "seedIndices",
          "type": "uint256[]"
        }
      ],
      "name": "renderSVGFromWords",
      "outputs": [
        {
          "internalType": "string",
          "name": "",
          "type": "string"
        }
      ],
      "stateMutability": "view",
      "type": "function"
    },
    {
      "inputs": [
        {
          "internalType": "uint256",
          "name": "_tokenId",
          "type": "uint256"
        }
      ],
      "name": "renderSVGstatic",
      "outputs": [
        {
          "internalType": "string",
          "name": "",
          "type": "string"
        }
      ],
      "stateMutability": "view",
      "type": "function"
    },
    {
      "inputs": [
        {
          "internalType": "uint256[]",
          "name": "seedIndices",
          "type": "uint256[]"
        }
      ],
      "name": "renderSVGstaticFromWords",
      "outputs": [
        {
          "internalType": "string",
          "name": "",
          "type": "string"
        }
      ],
      "stateMutability": "view",
      "type": "function"
    },
    {
      "inputs": [
        {
          "internalType": "address",
          "name": "from",
          "type": "address"
        },
        {
          "internalType": "address",
          "name": "to",
          "type": "address"
        },
        {
          "internalType": "uint256",
          "name": "id",
          "type": "uint256"
        }
      ],
      "name": "safeTransferFrom",
      "outputs": [],
      "stateMutability": "nonpayable",
      "type": "function"
    },
    {
      "inputs": [
        {
          "internalType": "address",
          "name": "from",
          "type": "address"
        },
        {
          "internalType": "address",
          "name": "to",
          "type": "address"
        },
        {
          "internalType": "uint256",
          "name": "id",
          "type": "uint256"
        },
        {
          "internalType": "bytes",
          "name": "data",
          "type": "bytes"
        }
      ],
      "name": "safeTransferFrom",
      "outputs": [],
      "stateMutability": "nonpayable",
      "type": "function"
    },
    {
      "inputs": [
        {
          "internalType": "uint256",
          "name": "",
          "type": "uint256"
        }
      ],
      "name": "seeds",
      "outputs": [
        {
          "internalType": "bytes",
          "name": "entropy",
          "type": "bytes"
        },
        {
          "internalType": "bool",
          "name": "bound",
          "type": "bool"
        }
      ],
      "stateMutability": "view",
      "type": "function"
    },
    {
      "inputs": [
        {
          "internalType": "address",
          "name": "operator",
          "type": "address"
        },
        {
          "internalType": "bool",
          "name": "approved",
          "type": "bool"
        }
      ],
      "name": "setApprovalForAll",
      "outputs": [],
      "stateMutability": "nonpayable",
      "type": "function"
    },
    {
      "inputs": [
        {
          "internalType": "string",
          "name": "fontString",
          "type": "string"
        }
      ],
      "name": "setFont",
      "outputs": [],
      "stateMutability": "nonpayable",
      "type": "function"
    },
    {
      "inputs": [
        {
          "internalType": "bytes4",
          "name": "interfaceId",
          "type": "bytes4"
        }
      ],
      "name": "supportsInterface",
      "outputs": [
        {
          "internalType": "bool",
          "name": "",
          "type": "bool"
        }
      ],
      "stateMutability": "view",
      "type": "function"
    },
    {
      "inputs": [],
      "name": "symbol",
      "outputs": [
        {
          "internalType": "string",
          "name": "",
          "type": "string"
        }
      ],
      "stateMutability": "view",
      "type": "function"
    },
    {
      "inputs": [
        {
          "internalType": "uint256",
          "name": "_tokenId",
          "type": "uint256"
        }
      ],
      "name": "tokenURI",
      "outputs": [
        {
          "internalType": "string",
          "name": "",
          "type": "string"
        }
      ],
      "stateMutability": "view",
      "type": "function"
    },
    {
      "inputs": [],
      "name": "totalSupply",
      "outputs": [
        {
          "internalType": "uint256",
          "name": "",
          "type": "uint256"
        }
      ],
      "stateMutability": "view",
      "type": "function"
    },
    {
      "inputs": [
        {
          "internalType": "address",
          "name": "from",
          "type": "address"
        },
        {
          "internalType": "address",
          "name": "to",
          "type": "address"
        },
        {
          "internalType": "uint256",
          "name": "id",
          "type": "uint256"
        }
      ],
      "name": "transferFrom",
      "outputs": [],
      "stateMutability": "nonpayable",
      "type": "function"
    },
    {
      "inputs": [
        {
          "internalType": "address",
          "name": "newOwner",
          "type": "address"
        }
      ],
      "name": "transferOwnership",
      "outputs": [],
      "stateMutability": "nonpayable",
      "type": "function"
    },
    {
      "inputs": [
        {
          "internalType": "address payable",
          "name": "_to",
          "type": "address"
        }
      ],
      "name": "withdraw",
      "outputs": [],
      "stateMutability": "nonpayable",
      "type": "function"
    },
    {
      "inputs": [],
      "name": "wordPrice",
      "outputs": [
        {
          "internalType": "uint256",
          "name": "",
          "type": "uint256"
        }
      ],
      "stateMutability": "view",
      "type": "function"
    },
    {
      "inputs": [
        {
          "internalType": "uint256",
          "name": "",
          "type": "uint256"
        }
      ],
      "name": "wordlist",
      "outputs": [
        {
          "internalType": "string",
          "name": "",
          "type": "string"
        }
      ],
      "stateMutability": "view",
      "type": "function"
    }
  ],
  "transactionHash": "0x2253546540d29ddcad6060c8e341eef6e9d8d05be37360f76250b467938aa8e9",
  "args": [],
  "numDeployments": 1,
  "solcInputHash": "f8672c3ec2ca825207aabaa4ef255dff",
  "bytecode": "0x60806040523462000a9a576200001462000a9f565b60098152685365656420506f656d60b81b60208201526200003462000a9f565b600481526314d1515160e21b602082015281516001600160401b03811162000718576200006360005462000adb565b601f811162000a59575b50602092601f8211600114620009e35792819293600092620009d7575b50508160011b916000199060031b1c1916176000555b80516001600160401b0381116200071857620000be60015462000adb565b601f811162000984575b50602091601f82116001146200091a579181926000926200090e575b50508160011b916000199060031b1c1916176001555b6108068054610100600160a81b03191633600881901b610100600160a81b03169190911790915561080780546001600160a01b0319168217905560007f8be0079c531659141344cd1fd0a4f28419497f9722a3daafe3b4186f6b6457e08180a3662386f26fc1000061080a5561080b805460ff19166001179055604051608081016001600160401b0381118282101762000718576040526003815260208101606036823781511562000841576106189052805160011015620008415761053960408201528051600210156200084157610617606082015261080990620001e1825462000b31565b80925561080081518061080d551015620008ca57805160038110159081620008bd575b81620008b0575b5015620008765780519081600b810204600b1482151715620002d15762000235600b830262000b4f565b9160005b8251811015620002f05760208160051b8401015160005b600b81106200026c575050620002669062000b31565b62000239565b600a8082810311620002d1576001908290031b821615620002e757600160f81b905b83600b810204600b1484151715620002d157620002cb91620002c4620002b883600b880262000b41565b9160001a918962000b99565b5362000b31565b62000250565b634e487b7160e01b600052601160045260246000fd5b6000906200028e565b5092600b840260218104810311620002d1576200031b6021600b860204600b86020360031c62000b4f565b9160005b8351811015620003db5760005b60088110620003475750620003419062000b31565b6200031f565b8160031b82810460081483151715620002d157620003736200036c8360019362000b41565b8862000b99565b5160f81c146200038f575b620003899062000b31565b6200032c565b6200039b828662000b99565b5160f81c9060078082810311620002d157620003899260ff6001848260f81b94031b161760f81b1660001a620003d2848862000b99565b5390506200037e565b508484939293604051845160005b818110620008635750818060009260209401838152039060025afa1562000857576000519060005b6021600b8502048110620007a85750505050815160208301208060005261080c908160205260ff6040600020541662000763576000526020526040600020600160ff19825416179055604051906060820182811060018060401b038211176200071857604052815260208101918252604081019160008352836000526108086020526040600020915180519060018060401b03821162000718576801000000000000000082116200071857602090845483865580841062000743575b500183600052602060002060005b8381106200072e5750509151805160018501935091506001600160401b03821162000718576200050c835462000adb565b601f8111620006d6575b50602090601f831160011462000665576002949392916000918362000659575b50508160011b916000199060031b1c19161790555b019051151560ff80198354169116179055331562000620576000818152600260205260409020546001600160a01b0316620005ea5733600052600360205260406000206001815401905580600052600260205260406000203360018060a01b0319825416179055604051903360007fddf252ad1be2c89b69c2b068fc378daa952ba7f163c4a11628f55a4df523b3ef8180a4614174908162000bac8239f35b60405162461bcd60e51b815260206004820152600e60248201526d1053149150511657d3525395115160921b6044820152606490fd5b60405162461bcd60e51b81526020600482015260116024820152701253959053125117d49150d25412515395607a1b6044820152606490fd5b01519050878062000536565b90601f198316918460005260206000209260005b818110620006bd575091600193918560029897969410620006a3575b505050811b0190556200054b565b015160001960f88460031b161c1916905587808062000695565b9293602060018192878601518155019501930162000679565b6200070690846000526020600020601f850160051c810191602086106200070d575b601f0160051c019062000b18565b8662000516565b9091508190620006f8565b634e487b7160e01b600052604160045260246000fd5b600190602084519401938184015501620004db565b6200075c90866000528484600020918201910162000b18565b87620004cd565b60405162461bcd60e51b815260206004820152601760248201527f4d4e454d4f4e49435f414c52454144595f4d494e5445440000000000000000006044820152606490fd5b620007ca620007c3826021600b880204600b88020362000b41565b8362000b99565b5160f81c8160031c6020811015620008415760078084168103908111620002d157856001921a901c16036200080a57620008049062000b31565b62000411565b60405162461bcd60e51b815260206004820152600f60248201526e4661696c656420636865636b73756d60881b6044820152606490fd5b634e487b7160e01b600052603260045260246000fd5b6040513d6000823e3d90fd5b60208188018101518483015201620003e9565b60405162461bcd60e51b8152602060048201526012602482015271125b9d985b1a59081ddbdc990818dbdd5b9d60721b6044820152606490fd5b600391500615386200020b565b6018811115915062000204565b606460405162461bcd60e51b815260206004820152602060248201527f4d494e5441424c455f574f52445f4c494d49545f524541434845445f323034386044820152fd5b015190503880620000e4565b601f19821692600160005260206000209160005b8581106200096b5750836001951062000951575b505050811b01600155620000fa565b015160001960f88460031b161c1916905538808062000942565b919260206001819286850151815501940192016200092e565b6001600052620009d0907fb10e2d527612073b26eecdfd717e6a320cf44b4afac2b0732d9fcbe2b7fa0cf6601f840160051c810191602085106200070d57601f0160051c019062000b18565b38620000c8565b0151905038806200008a565b6000808052601f1983169460008051602062004d208339815191529290915b86811062000a40575083600195961062000a26575b505050811b01600055620000a0565b015160001960f88460031b161c1916905538808062000a17565b9192602060018192868501518155019401920162000a02565b6000805262000a939060008051602062004d20833981519152601f840160051c810191602085106200070d57601f0160051c019062000b18565b386200006d565b600080fd5b60408051919082016001600160401b038111838210176200071857604052565b6001600160401b0381116200071857601f01601f191660200190565b90600182811c9216801562000b0d575b602083101462000af757565b634e487b7160e01b600052602260045260246000fd5b91607f169162000aeb565b81811062000b24575050565b6000815560010162000b18565b6000198114620002d15760010190565b91908201809211620002d157565b9062000b5b8262000abf565b60405190601f1990601f01811682016001600160401b03811183821017620007185760405283825262000b8f829462000abf565b0190602036910137565b9081518110156200084157016020019056fe608060408181526004908136101561001657600080fd5b600092833560e01c90816301ffc9a7146126475750806306bddb19146122ba57806306fdde03146121f4578063081812fc146121995780630908853214612094578063095ea7b314611fa65780630b35610214611f675780630dd0a04214611ed557806316c6ca9714611d6957806317aee9ba14611d0f57806318160ddd14611cd157806323b872dd14611cb95780632a2758be14611ca25780633438c9b314611c665780633558587714611c475780633d92e4f014611c0557806342842e0e14611aea57806346623ecd14611a90578063492f7e04146119a65780634c0e5ec91461194c5780634d81e4331461192a5783816351cff8d914611895575080635ca2ddf1146117c45780636352211e1461176957806370a08231146116a0578063728ac96a1461166257806378d20fa21461157d5780638da5cb5b1461152957806395d89b411461140a578063985e593714611344578063a22cb4651461126f578063a582fc5614611222578063b3f05b97146111df578063b4d7ec711461115d578063b88d4fde14610f8d578063c6dc80fb14610f5e578063c87b56dd14610e25578063cf30901214610de2578063d12a4c9814610d11578063d451a75714610c40578063e985e9c514610bc7578063eb60633a14610b7d578063ed9978c714610abe578063f0503e8014610a3e578063f1eeb61b146109f2578063f232b8e61461089f578063f2fde38b146107e95763f8e93ef91461023657600080fd5b61023f366129f7565b9161080a548351908181029181830414901517156107bd5760ff61080b541661076057340361070457610809926102768454612efc565b809455610800815161028c61080d918254612eb3565b80915510156106a75761029e81613748565b918251926020938482012080885261080c9081865260ff878a20541661064b578852845284872092600193847fffffffffffffffffffffffffffffffffffffffffffffffffffffffffffffff00825416179055855191606083019167ffffffffffffffff92848110848211176105c6578852835285830190815286830191898352888a526108088752878a20935180519082821161061f5768010000000000000000821161061f5788908c87548489558484828210610604575b5050505001858c52888c20888d5b8481106105f25750925050508401915180519182116105c6576103938261038d8554612833565b85612f83565b87908b601f841160011461051d579260029492819261041a98979592610512575b50507fffffffffffffffffffffffffffffffffffffffffffffffffffffffffffffffff828a1b9260031b1c19161790555b51151591019060ff7fffffffffffffffffffffffffffffffffffffffffffffffffffffffffffffff0083541691151516179055565b610425331515613c73565b8486526002835273ffffffffffffffffffffffffffffffffffffffff84872054166104b657509060029133865260038252838620908154019055838552528220337fffffffffffffffffffffffff000000000000000000000000000000000000000082541617905533827fddf252ad1be2c89b69c2b068fc378daa952ba7f163c4a11628f55a4df523b3ef8180a480f35b606490838551917f08c379a0000000000000000000000000000000000000000000000000000000008352820152600e60248201527f414c52454144595f4d494e5445440000000000000000000000000000000000006044820152fd5b0151905038806103b4565b909183927fffffffffffffffffffffffffffffffffffffffffffffffffffffffffffffffe08a95168684528b8420935b8c8282106105b05750509161041a989795939185600298969410610579575b505050811b0190556103e5565b01517fffffffffffffffffffffffffffffffffffffffffffffffffffffffffffffffff60f88460031b161c1916905538808061056c565b8385015186558c9790950194938401930161054d565b60248b6041887f4e487b7100000000000000000000000000000000000000000000000000000000835252fd5b8b845194019381840155018990610366565b838b6106169552209182019101612f6c565b8c388484610358565b60248c6041897f4e487b7100000000000000000000000000000000000000000000000000000000835252fd5b606484878951917f08c379a0000000000000000000000000000000000000000000000000000000008352820152601760248201527f4d4e454d4f4e49435f414c52454144595f4d494e5445440000000000000000006044820152fd5b50602060649251917f08c379a0000000000000000000000000000000000000000000000000000000008352820152602060248201527f4d494e5441424c455f574f52445f4c494d49545f524541434845445f323034386044820152fd5b602060649251917f08c379a0000000000000000000000000000000000000000000000000000000008352820152600560248201527f50524943450000000000000000000000000000000000000000000000000000006044820152fd5b50602060649251917f08c379a0000000000000000000000000000000000000000000000000000000008352820152600660248201527f4c4f434b454400000000000000000000000000000000000000000000000000006044820152fd5b6024856011847f4e487b7100000000000000000000000000000000000000000000000000000000835252fd5b833461089c5760207ffffffffffffffffffffffffffffffffffffffffffffffffffffffffffffffffc36011261089c577fffffffffffffffffffffffff00000000000000000000000000000000000000006108426129d4565b6108079081549073ffffffffffffffffffffffffffffffffffffffff9061086c8284163314612cef565b1692839116179055337f8be0079c531659141344cd1fd0a4f28419497f9722a3daafe3b4186f6b6457e08380a380f35b80fd5b50346109ee57602091827ffffffffffffffffffffffffffffffffffffffffffffffffffffffffffffffffc3601126109ea5783813580825261080880865284832085519081888254918281520191865288862090865b8a8282106109d357505050509061091181610916930382612735565b613a75565b91835285526001848320019261095e61092d61409b565b865195869485947f0403faa4000000000000000000000000000000000000000000000000000000008652850161403b565b0381735FbDB2315678afecb367f032d93F642f64180aa35af49384156109c857809461099e575b505061099a905192828493845283019061296e565b0390f35b61099a929450906109c0913d8091833e6109b88183612735565b810190613f87565b929038610985565b8251903d90823e3d90fd5b835485528c985090930192600192830192016108f5565b8380fd5b8280fd5b5090346109ee5760207ffffffffffffffffffffffffffffffffffffffffffffffffffffffffffffffffc3601126109ee578160209360ff9235815261080c855220541690519015158152f35b5090346109ee5760207ffffffffffffffffffffffffffffffffffffffffffffffffffffffffffffffffc3601126109ee57918192358152610808602052209060ff6002825193610a9c85610a958160018501612c3a565b0386612735565b015416610ab2825193838594855284019061296e565b90151560208301520390f35b50829034610b7957817ffffffffffffffffffffffffffffffffffffffffffffffffffffffffffffffffc360112610b79578051918183019083821067ffffffffffffffff831117610b4d575061099a93508152600782527f656e676c6973680000000000000000000000000000000000000000000000000060208301525191829160208352602083019061296e565b806041867f4e487b71000000000000000000000000000000000000000000000000000000006024945252fd5b5080fd5b50823461089c5760207ffffffffffffffffffffffffffffffffffffffffffffffffffffffffffffffffc36011261089c5750610bbc61099a9235613a39565b905191829182612b51565b838234610b7957807ffffffffffffffffffffffffffffffffffffffffffffffffffffffffffffffffc360112610b795760ff81602093610c056129d4565b610c0d6129b1565b73ffffffffffffffffffffffffffffffffffffffff91821683526005875283832091168252855220549151911615158152f35b50346109ee57602091827ffffffffffffffffffffffffffffffffffffffffffffffffffffffffffffffffc3601126109ea5783813580825261080880865284832085519081888254918281520191865288862090865b8a828210610cfa57505050509061091181610cb2930382612735565b91835285526001848320019261095e610cc961409b565b865195869485947ffcb70035000000000000000000000000000000000000000000000000000000008652850161403b565b835485528c98509093019260019283019201610c96565b50346109ee57602091827ffffffffffffffffffffffffffffffffffffffffffffffffffffffffffffffffc3601126109ea5783813580825261080880865284832085519081888254918281520191865288862090865b8a828210610dcb57505050509061091181610d83930382612735565b91835285526001848320019261095e610d9a61409b565b865195869485947f74a06ecf000000000000000000000000000000000000000000000000000000008652850161403b565b835485528c98509093019260019283019201610d67565b838234610b7957817ffffffffffffffffffffffffffffffffffffffffffffffffffffffffffffffffc360112610b795760209060ff61080b541690519015158152f35b50346109ee576020917ffffffffffffffffffffffffffffffffffffffffffffffffffffffffffffffffc908382360112610f5a57808591359081835260028652610e8973ffffffffffffffffffffffffffffffffffffffff86852054161515612d54565b8183526108089384875285842086519081898254918281520191875289872090875b8b828210610f4357505050508161091161095e9493610ecb930382612735565b958486528852600187862001610f34610ee261409b565b91610f248a51998a9889987f88508639000000000000000000000000000000000000000000000000000000008a52890152608060248901526084880190613fe6565b9084878303016044880152612c3a565b9184830301606485015261296e565b835485528d99509093019260019283019201610eab565b8480fd5b838234610b795761099a90610f7a610f75366129f7565b613748565b905191829160208352602083019061296e565b5090346109ee5760807ffffffffffffffffffffffffffffffffffffffffffffffffffffffffffffffffc3601126109ee57610fc66129d4565b90610fcf6129b1565b916044359260643567ffffffffffffffff811161115957610ff39036908501612c0c565b9285885261080860205261101060ff6002898b2001541615613cd8565b61101b868483613d3d565b823b15958615611033575b8861103088613f22565b80f35b9091929380959650875195869485937f150b7a0200000000000000000000000000000000000000000000000000000000998a8652339086015273ffffffffffffffffffffffffffffffffffffffff80961660248601526044850152606484016080905281608485015260a48401378881830160a40152601f017fffffffffffffffffffffffffffffffffffffffffffffffffffffffffffffffe01681010360a40192169181875a94602095f19283156111505750611030927fffffffff00000000000000000000000000000000000000000000000000000000918591611122575b501614388080808080611026565b611143915060203d8111611149575b61113b8183612735565b810190613eea565b38611114565b503d611131565b513d85823e3d90fd5b8680fd5b833461089c57807ffffffffffffffffffffffffffffffffffffffffffffffffffffffffffffffffc36011261089c5761080660017fffffffffffffffffffffffffffffffffffffffffffffffffffffffffffffff0082546111d873ffffffffffffffffffffffffffffffffffffffff8260081c163314612e4e565b1617905580f35b838234610b7957817ffffffffffffffffffffffffffffffffffffffffffffffffffffffffffffffffc360112610b795760209060ff610806541690519015158152f35b5090346109ee5760207ffffffffffffffffffffffffffffffffffffffffffffffffffffffffffffffffc3601126109ee57359161080083101561089c5750610f7a61099a92600601612886565b838234610b7957807ffffffffffffffffffffffffffffffffffffffffffffffffffffffffffffffffc360112610b79576112a76129d4565b906024359081151591828103610f5a5761131790338652600560205273ffffffffffffffffffffffffffffffffffffffff8387209516948587526020528286209060ff7fffffffffffffffffffffffffffffffffffffffffffffffffffffffffffffff0083541691151516179055565b519081527f17307eab39ab6107e8899845ad3d59bd9653f200f220920489ca2b5937696c3160203392a380f35b50346109ee5782611354366129f7565b9261136761136185613748565b94613a75565b906113a461137361409b565b855196879485947ffcb700350000000000000000000000000000000000000000000000000000000086528501614072565b0381735FbDB2315678afecb367f032d93F642f64180aa35af4918215611400578361099a94936113e3575b50505191829160208352602083019061296e565b6113f89293503d8091833e6109b88183612735565b9038806113cf565b81513d85823e3d90fd5b838234610b7957817ffffffffffffffffffffffffffffffffffffffffffffffffffffffffffffffffc360112610b795780519082600180549161144c83612833565b808652928281169081156114e35750600114611487575b5050506114758261099a940383612735565b5191829160208352602083019061296e565b94508085527fb10e2d527612073b26eecdfd717e6a320cf44b4afac2b0732d9fcbe2b7fa0cf65b8286106114cb5750505061147582602061099a9582010194611463565b805460208787018101919091529095019481016114ae565b61099a9750869350602092506114759491507fffffffffffffffffffffffffffffffffffffffffffffffffffffffffffffff001682840152151560051b82010194611463565b838234610b7957817ffffffffffffffffffffffffffffffffffffffffffffffffffffffffffffffffc360112610b795760209073ffffffffffffffffffffffffffffffffffffffff61080754169051908152f35b50346109ee5760207ffffffffffffffffffffffffffffffffffffffffffffffffffffffffffffffffc3601126109ee5781359067ffffffffffffffff82116109ea576015600b6115d36116029436908701612c0c565b949073ffffffffffffffffffffffffffffffffffffffff956115fb8761080754163314612cef565b36916127f7565b9283519060018201901b6a61000080600a3d393df30017845201910184f0918215611657575061080e91167fffffffffffffffffffffffff000000000000000000000000000000000000000082541617905580f35b63301164258452601cfd5b838234610b7957817ffffffffffffffffffffffffffffffffffffffffffffffffffffffffffffffffc360112610b795760209061080a549051908152f35b50919034610b795760207ffffffffffffffffffffffffffffffffffffffffffffffffffffffffffffffffc360112610b795773ffffffffffffffffffffffffffffffffffffffff6116ef6129d4565b1690811561170c5760208480858581526003845220549051908152f35b60649060208551917f08c379a0000000000000000000000000000000000000000000000000000000008352820152600c60248201527f5a45524f5f4144445245535300000000000000000000000000000000000000006044820152fd5b50823461089c5760207ffffffffffffffffffffffffffffffffffffffffffffffffffffffffffffffffc36011261089c575073ffffffffffffffffffffffffffffffffffffffff6117bc60209335612db9565b915191168152f35b50346109ee57602091827ffffffffffffffffffffffffffffffffffffffffffffffffffffffffffffffffc3601126109ea5783813580825261080880865284832085519081888254918281520191865288862090865b8a82821061187e57505050509061091181611836930382612735565b91835285526001848320019261095e61184d61409b565b865195869485947feb5cf9ab000000000000000000000000000000000000000000000000000000008652850161403b565b835485528c9850909301926001928301920161181a565b82818534610b795760207ffffffffffffffffffffffffffffffffffffffffffffffffffffffffffffffffc360112610b79573573ffffffffffffffffffffffffffffffffffffffff908181168091036109ee57828092916118fd829361080754163314612cef565b47905af1903d156119245761191c906119153d6127bd565b9051612735565b1561089c5780f35b5061191c565b838234610b795761099a90611941610911366129f7565b905191829182612b8c565b50346109ee578261195c366129f7565b9261196961136185613748565b906113a461197561409b565b855196879485947f0403faa40000000000000000000000000000000000000000000000000000000086528501614072565b50829034610b7957817ffffffffffffffffffffffffffffffffffffffffffffffffffffffffffffffffc360112610b79576119e361080d54612fd9565b918080610809545b8083106119ff5784518061099a8882612b51565b819594955b8383526020610808815287842054821015611a7b578784208054831015611a4f5784528320810154611a4a9190611a44611a3d88612efc565b9789612f29565b52612efc565b611a04565b60248560328c7f4e487b7100000000000000000000000000000000000000000000000000000000835252fd5b505091611a8a90959495612efc565b916119eb565b50346109ee5782611aa0366129f7565b92611aad61136185613748565b906113a4611ab961409b565b855196879485947feb5cf9ab0000000000000000000000000000000000000000000000000000000086528501614072565b5090346109ee57611afa36612a94565b929190838652610808602052611b1960ff600287892001541615613cd8565b611b24848284613d3d565b803b15938415611b39575b8661103086613f22565b60209293945060a49087875195869485937f150b7a0200000000000000000000000000000000000000000000000000000000998a8652339086015273ffffffffffffffffffffffffffffffffffffffff8093166024860152604485015260806064850152826084850152165af19283156111505750611030927fffffffff00000000000000000000000000000000000000000000000000000000918591611be7575b50161438808080611b2f565b611bff915060203d81116111495761113b8183612735565b38611bdb565b50823461089c5760207ffffffffffffffffffffffffffffffffffffffffffffffffffffffffffffffffc36011261089c575061194161091161099a9335613a39565b838234610b795761099a90611941610911611c6136612af4565b613028565b838234610b7957817ffffffffffffffffffffffffffffffffffffffffffffffffffffffffffffffffc360112610b795761099a90610f7a61409b565b838234610b795761099a90610bbc611c6136612af4565b833461089c57611030611ccb36612a94565b91613d3d565b838234610b7957817ffffffffffffffffffffffffffffffffffffffffffffffffffffffffffffffffc360112610b7957602090610809549051908152f35b50346109ee5782611d1f366129f7565b92611d2c61136185613748565b906113a4611d3861409b565b855196879485947f74a06ecf0000000000000000000000000000000000000000000000000000000086528501614072565b50346109ee57827ffffffffffffffffffffffffffffffffffffffffffffffffffffffffffffffffc3601126109ee578051620100009267ffffffffffffffff9184810183811182821017611ea9578452855b858110611e9b575050825193840191821184831017611e6f57508152600683835b6108008210611e525750505051906020928383018484526201002084019291945b6108008610611e0c5784840385f35b9091928180611e45837fffffffffffffffffffffffffffffffffffffffffffffffffffffffffffffffe08960019603018752875161296e565b9501930195019490611dfd565b600160208192611e6186612886565b815201930191019091611ddc565b8460416024927f4e487b7100000000000000000000000000000000000000000000000000000000835252fd5b606082820152602001611dbb565b6024876041857f4e487b7100000000000000000000000000000000000000000000000000000000835252fd5b505034610b795760207ffffffffffffffffffffffffffffffffffffffffffffffffffffffffffffffffc360112610b795735801515809103610b7957611f3573ffffffffffffffffffffffffffffffffffffffff61080754163314612cef565b61080b9060ff7fffffffffffffffffffffffffffffffffffffffffffffffffffffffffffffff00835416911617905580f35b50823461089c5760207ffffffffffffffffffffffffffffffffffffffffffffffffffffffffffffffffc36011261089c5750610f7a61099a9235613b2f565b5090346109ee57817ffffffffffffffffffffffffffffffffffffffffffffffffffffffffffffffffc3601126109ee57611fde6129d4565b9060243592838552600260205273ffffffffffffffffffffffffffffffffffffffff90818187205416928333148015612075575b61201b90612de9565b8587526020528520921691827fffffffffffffffffffffffff00000000000000000000000000000000000000008254161790557f8c5be1e5ebec7d5bd14f71427d1e84f3dd0314c0f7b2291e5b200ac8c7c3b9258480a480f35b508387526005602090815282882033895290528187205460ff16612012565b50829034610b7957807ffffffffffffffffffffffffffffffffffffffffffffffffffffffffffffffffc360112610b795782356120cf6129b1565b936120d982612db9565b73ffffffffffffffffffffffffffffffffffffffff3391160361213c5750612105816002949533613d3d565b835261080860205282200160017fffffffffffffffffffffffffffffffffffffffffffffffffffffffffffffff0082541617905580f35b60649060208451917f08c379a0000000000000000000000000000000000000000000000000000000008352820152600a60248201527f4f4e4c595f4f574e4552000000000000000000000000000000000000000000006044820152fd5b5090346109ee5760207ffffffffffffffffffffffffffffffffffffffffffffffffffffffffffffffffc3601126109ee57816020938273ffffffffffffffffffffffffffffffffffffffff9335825285522054169051908152f35b838234610b7957817ffffffffffffffffffffffffffffffffffffffffffffffffffffffffffffffffc360112610b795780519082805461223381612833565b808552916001918083169081156114e3575060011461225e575050506114758261099a940383612735565b80809650527f290decd9548b62a8d60345a988386fc84ba6bc95484008f6362f93160ef3e5635b8286106122a25750505061147582602061099a9582010194611463565b80546020878701810191909152909501948101612285565b50919034610b7957827ffffffffffffffffffffffffffffffffffffffffffffffffffffffffffffffffc360112610b795780359267ffffffffffffffff908185116109ea57366023860112156109ea5784830135612317816127a5565b9461232483519687612735565b8186526020968787016024809460051b830101913683116109ea57848101915b83831061260c575050505081359160ff6108065461237c73ffffffffffffffffffffffffffffffffffffffff8260081c163314612e4e565b166125b15761238c875184612eb3565b937fffffffffffffffffffffffffffffffffffffffffffffffffffffffffffffffff9485810190811161258657610800111561252b5750815b8751811015612527576123d88189612f29565b516123e38286612eb3565b6108008110156124fc57600601908051908882116124d1576124098261038d8554612833565b8b90601f831160011461244b5761243b94939291879183612440575b5050888260011b9260031b1c1916179055612efc565b6123c5565b015190503880612425565b8387528c872091907fffffffffffffffffffffffffffffffffffffffffffffffffffffffffffffffe08416888f5b8282106124ba575050908461243b979695949392106124a3575b505050600190811b019055612efc565b01518960f88460031b161c19169055388080612493565b60018596829396860151815501950193018f612479565b848660418c7f4e487b7100000000000000000000000000000000000000000000000000000000835252fd5b838560328b7f4e487b7100000000000000000000000000000000000000000000000000000000835252fd5b8280f35b600e6064928a899351937f08c379a00000000000000000000000000000000000000000000000000000000085528401528201527f696e64657820746f6f20686967680000000000000000000000000000000000006044820152fd5b828460118a7f4e487b7100000000000000000000000000000000000000000000000000000000835252fd5b8560096064928a8751937f08c379a00000000000000000000000000000000000000000000000000000000085528401528201527f66696e616c697a656400000000000000000000000000000000000000000000006044820152fd5b823588811161264357820136604382011215612643578b916126388392369060448b82013591016127f7565b815201920191612344565b8580fd5b849084346109ee5760207ffffffffffffffffffffffffffffffffffffffffffffffffffffffffffffffffc3601126109ee57357fffffffff0000000000000000000000000000000000000000000000000000000081168091036109ee57602092507f01ffc9a700000000000000000000000000000000000000000000000000000000811490811561270b575b81156126e1575b5015158152f35b7f5b5e139f00000000000000000000000000000000000000000000000000000000915014836126da565b7f80ac58cd00000000000000000000000000000000000000000000000000000000811491506126d3565b90601f7fffffffffffffffffffffffffffffffffffffffffffffffffffffffffffffffe0910116810190811067ffffffffffffffff82111761277657604052565b7f4e487b7100000000000000000000000000000000000000000000000000000000600052604160045260246000fd5b67ffffffffffffffff81116127765760051b60200190565b67ffffffffffffffff811161277657601f017fffffffffffffffffffffffffffffffffffffffffffffffffffffffffffffffe01660200190565b929192612803826127bd565b916128116040519384612735565b82948184528183011161282e578281602093846000960137010152565b600080fd5b90600182811c9216801561287c575b602083101461284d57565b7f4e487b7100000000000000000000000000000000000000000000000000000000600052602260045260246000fd5b91607f1691612842565b906040519182600082549261289a84612833565b90818452600194858116908160001461290957506001146128c6575b50506128c492500383612735565b565b9093915060005260209081600020936000915b8183106128f15750506128c4935082010138806128b6565b855488840185015294850194879450918301916128d9565b90506128c49550602093507fffffffffffffffffffffffffffffffffffffffffffffffffffffffffffffff0091501682840152151560051b82010138806128b6565b60005b83811061295e5750506000910152565b818101518382015260200161294e565b907fffffffffffffffffffffffffffffffffffffffffffffffffffffffffffffffe0601f6020936129aa8151809281875287808801910161294b565b0116010190565b6024359073ffffffffffffffffffffffffffffffffffffffff8216820361282e57565b6004359073ffffffffffffffffffffffffffffffffffffffff8216820361282e57565b6020807ffffffffffffffffffffffffffffffffffffffffffffffffffffffffffffffffc83011261282e576004359167ffffffffffffffff831161282e578060238401121561282e578260040135612a4e816127a5565b93612a5c6040519586612735565b81855260248486019260051b82010192831161282e57602401905b828210612a85575050505090565b81358152908301908301612a77565b7ffffffffffffffffffffffffffffffffffffffffffffffffffffffffffffffffc606091011261282e5773ffffffffffffffffffffffffffffffffffffffff90600435828116810361282e5791602435908116810361282e579060443590565b60207ffffffffffffffffffffffffffffffffffffffffffffffffffffffffffffffffc82011261282e576004359067ffffffffffffffff821161282e578060238301121561282e57816024612b4e936004013591016127f7565b90565b6020908160408183019282815285518094520193019160005b828110612b78575050505090565b835185529381019392810192600101612b6a565b602080820190808352835180925260408301928160408460051b8301019501936000915b848310612bc05750505050505090565b9091929394958480612bfc837fffffffffffffffffffffffffffffffffffffffffffffffffffffffffffffffc086600196030187528a5161296e565b9801930193019194939290612bb0565b9181601f8401121561282e5782359167ffffffffffffffff831161282e576020838186019501011161282e57565b9060009291805491612c4b83612833565b918282526001938481169081600014612cad5750600114612c6d575b50505050565b90919394506000526020928360002092846000945b838610612c99575050505001019038808080612c67565b805485870183015294019385908201612c82565b91505060209495507fffffffffffffffffffffffffffffffffffffffffffffffffffffffffffffff009193501683830152151560051b01019038808080612c67565b15612cf657565b60646040517f08c379a000000000000000000000000000000000000000000000000000000000815260206004820152600c60248201527f554e415554484f52495a454400000000000000000000000000000000000000006044820152fd5b15612d5b57565b60646040517f08c379a000000000000000000000000000000000000000000000000000000000815260206004820152600a60248201527f4e4f545f4d494e544544000000000000000000000000000000000000000000006044820152fd5b600052600260205273ffffffffffffffffffffffffffffffffffffffff60406000205416906128c4821515612d54565b15612df057565b60646040517f08c379a000000000000000000000000000000000000000000000000000000000815260206004820152600e60248201527f4e4f545f415554484f52495a45440000000000000000000000000000000000006044820152fd5b15612e5557565b60646040517f08c379a000000000000000000000000000000000000000000000000000000000815260206004820152600d60248201527f6f6e6c79206465706c6f796572000000000000000000000000000000000000006044820152fd5b91908201809211612ec057565b7f4e487b7100000000000000000000000000000000000000000000000000000000600052601160045260246000fd5b91908203918211612ec057565b7fffffffffffffffffffffffffffffffffffffffffffffffffffffffffffffffff8114612ec05760010190565b8051821015612f3d5760209160051b010190565b7f4e487b7100000000000000000000000000000000000000000000000000000000600052603260045260246000fd5b818110612f77575050565b60008155600101612f6c565b9190601f8111612f9257505050565b6128c4926000526020600020906020601f840160051c83019310612fbe575b601f0160051c0190612f6c565b9091508190612fb1565b908151811015612f3d570160200190565b90612fe3826127a5565b612ff06040519182612735565b8281527fffffffffffffffffffffffffffffffffffffffffffffffffffffffffffffffe061301e82946127a5565b0190602036910137565b90604090815183519360208561304282978584860161294b565b8360009485928101039060025afa15613692578151938051918683019267ffffffffffffffff93818110858211176136655783528481529484955b82518710156131f1576130908784612fc8565b5160f81c8451858101818110888211176131c457908b92918752600880825283820192843685378a5b82811061310e575050509161310893613102926130f694895195836130e7889551809288808901910161294b565b8401915180938684019061294b565b01038084520182612735565b96612efc565b9561307d565b9091929394506007818103908111613197578e9695949392916131699183901c600116613171577f30000000000000000000000000000000000000000000000000000000000000005b8d1a6131638287612fc8565b53612efc565b9594956130b9565b7f3100000000000000000000000000000000000000000000000000000000000000613157565b60248c7f4e487b710000000000000000000000000000000000000000000000000000000081526011600452fd5b6024897f4e487b710000000000000000000000000000000000000000000000000000000081526041600452fd5b919395509691958651956101208701908782109082111761366557875261010090818752813685890137855b8281106135c157505050825195868060031b04600814871517156134cb577f3ffffffffffffffffffffffffffffffffffffffffffffffffffffffffffffffe600197881b1661326b81613703565b96865b82811061357f57505050906132b49291519581613294889351809286808701910161294b565b82016132a88251809386808501910161294b565b01038086520184612735565b8051908160031b918083046008149015171561355257906132d9915160021c90612eb3565b926007840180941161352557600b809404916132f483612fd9565b94815b8481106133075750505050505090565b8181028181048314821517156134f8578482018083116134cb57838102908082048514901517156134cb578751808210156134c457505b61335061334b8383612eef565b613703565b91805b828110613477575050508390858086905b613380575b5050509061337b91611a44828a612f29565b6132f7565b8251811015613472577f31000000000000000000000000000000000000000000000000000000000000007fff000000000000000000000000000000000000000000000000000000000000006133d58386612fc8565b5116146133ec575b6133e690612efc565b81613364565b9290506133fa838351612eef565b7fffffffffffffffffffffffffffffffffffffffffffffffffffffffffffffffff81019081116134455760ff81116134455761343d8892836133e6931b90612eb3565b9390506133dd565b6024877f4e487b710000000000000000000000000000000000000000000000000000000081526011600452fd5b613369565b807fff000000000000000000000000000000000000000000000000000000000000006134a66134bf938d612fc8565b51166131636134b58584612eef565b918a1a9187612fc8565b613353565b905061333e565b6024857f4e487b710000000000000000000000000000000000000000000000000000000081526011600452fd5b6024847f4e487b710000000000000000000000000000000000000000000000000000000081526011600452fd5b6024827f4e487b710000000000000000000000000000000000000000000000000000000081526011600452fd5b6024837f4e487b710000000000000000000000000000000000000000000000000000000081526011600452fd5b807fff000000000000000000000000000000000000000000000000000000000000006135ae6135bc9385612fc8565b5116891a613163828c612fc8565b61326e565b60ff818103908111613638579060018361360d931c1615600014613612577f30000000000000000000000000000000000000000000000000000000000000005b881a613163828b612fc8565b61321d565b7f3100000000000000000000000000000000000000000000000000000000000000613601565b6024887f4e487b710000000000000000000000000000000000000000000000000000000081526011600452fd5b6024867f4e487b710000000000000000000000000000000000000000000000000000000081526041600452fd5b508251903d90823e3d90fd5b156136a557565b60646040517f08c379a000000000000000000000000000000000000000000000000000000000815260206004820152601260248201527f496e76616c696420776f726420636f756e7400000000000000000000000000006044820152fd5b9061370d826127bd565b61371a6040519182612735565b8281527fffffffffffffffffffffffffffffffffffffffffffffffffffffffffffffffe061301e82946127bd565b80519061376a60039283808210159182613a2d575b82613a22575b505061369e565b805190600b9283830292808404851490151715612ec05761378a83613703565b9260005b8351811015613831576137a18185612f29565b5160005b8781106137bc5750506137b790612efc565b61378e565b600a818103908111612ec0576000906001901b83161561382b57507f0100000000000000000000000000000000000000000000000000000000000000905b888402918483048a1485151715612ec05761316361381b8361382695612eb3565b9160001a918a612fc8565b6137a5565b906137fa565b50915093919250613846602182048092612eef565b9061385282861c613703565b926000925b84518410156139265760005b6008908181101561390e5785891b918683041486151715612ec05761389361388d82600194612eb3565b89612fc8565b51918060f893841c146138b1575b506138ac9150612efc565b613863565b6138bb8789612fc8565b51831c92600793838503948511612ec05760ff7fff00000000000000000000000000000000000000000000000000000000000000936138ac961b1617901b1660001a6139078789612fc8565b53386138a1565b50509261391d90929192612efc565b92919091613857565b919394925094604091825193866000868083516139498160209b8c80980161294b565b8101039060025afa15613a17576000519160005b87811061396f57505050505050505090565b61398261397c8284612eb3565b84612fc8565b5160f81c81861c88811015612f3d5760078084168103908111612ec057866001921a901c16036139ba576139b590612efc565b61395d565b6064878751907f08c379a00000000000000000000000000000000000000000000000000000000082526004820152600f60248201527f4661696c656420636865636b73756d00000000000000000000000000000000006044820152fd5b83513d6000823e3d90fd5b061590508338613763565b6018811115925061375d565b611c61612b4e91600381101580613a6a575b80613a5f575b613a5a9061369e565b613b2f565b506003810615613a51565b506018811115613a4b565b908151917fffffffffffffffffffffffffffffffffffffffffffffffffffffffffffffffe0613abc613aa6856127a5565b94613ab46040519687612735565b8086526127a5565b0160005b818110613b1e57505060005b8151811015613b1a57613adf8183612f29565b5190610800821015612f3d57613afa613b1592600601612886565b613b048287612f29565b52613b0f8186612f29565b50612efc565b613acc565b5050565b806060602080938801015201613ac0565b600381101580613c68575b80613c5d575b613b499061369e565b7fffffffffffffffffffffffffffffffffffffffffffffffffffffffffffffffff430190438211612ec0575a9160405190602093848301913260601b835240603484015242605484015260748301526074825260a082019180831067ffffffffffffffff841117612776576003926040525190209104808060051b04831481151715612ec05760021b7f1ffffffffffffffffffffffffffffffffffffffffffffffffffffffffffffffc16613bfd81613703565b92600090815b838110613c1257505050505090565b81811015613c30578085613c2b921a6131638289612fc8565b613c03565b6024837f4e487b710000000000000000000000000000000000000000000000000000000081526032600452fd5b506003810615613b40565b506018811115613b3a565b15613c7a57565b60646040517f08c379a000000000000000000000000000000000000000000000000000000000815260206004820152601160248201527f494e56414c49445f524543495049454e540000000000000000000000000000006044820152fd5b15613cdf57565b60646040517f08c379a000000000000000000000000000000000000000000000000000000000815260206004820152600560248201527f424f554e440000000000000000000000000000000000000000000000000000006044820152fd5b6000838152602061080881526040613d5e60ff600283862001541615613cd8565b8583526002825273ffffffffffffffffffffffffffffffffffffffff94858083862054169516948503613e8d5790613dd9867fddf252ad1be2c89b69c2b068fc378daa952ba7f163c4a11628f55a4df523b3ef9594931696613dc1881515613c73565b863314908115613e70575b8115613e5a575b50612de9565b848352600382528083207fffffffffffffffffffffffffffffffffffffffffffffffffffffffffffffffff815401905585835280832060018154019055868352600282526004818420927fffffffffffffffffffffffff000000000000000000000000000000000000000093888582541617905552822090815416905580a4565b9050888552600484528285205416331438613dd3565b8786526005855283862033875285528386205460ff169150613dcc565b6064838351907f08c379a00000000000000000000000000000000000000000000000000000000082526004820152600a60248201527f57524f4e475f46524f4d000000000000000000000000000000000000000000006044820152fd5b9081602091031261282e57517fffffffff000000000000000000000000000000000000000000000000000000008116810361282e5790565b15613f2957565b60646040517f08c379a000000000000000000000000000000000000000000000000000000000815260206004820152601060248201527f554e534146455f524543495049454e54000000000000000000000000000000006044820152fd5b60208183031261282e5780519067ffffffffffffffff821161282e570181601f8201121561282e578051613fba816127bd565b92613fc86040519485612735565b8184526020828401011161282e57612b4e916020808501910161294b565b90815180825260208092019182818360051b85019501936000915b8483106140115750505050505090565b909192939495848061402b83856001950387528a5161296e565b9801930193019194939290614001565b9161406490614056612b4e9593606086526060860190613fe6565b908482036020860152612c3a565b91604081840391015261296e565b916140649061408d612b4e9593606086526060860190613fe6565b90848203602086015261296e565b73ffffffffffffffffffffffffffffffffffffffff61080e5416803b908115614130576020612b4e91601f8460017fffffffffffffffffffffffffffffffffffffffffffffffffffffffffffffffff6141239701916040519461ffe0603e83011686016040528386526000878701958693880101523c6040519485925180928585019061294b565b8101038084520182612735565b6311052bb46000526004601cfdfea26469706673582212206f536bdbedd5f280ef65c9db3ae72af8daaeac02e57d09ea5e12d3a0ccc7c4ff64736f6c63430008110033290decd9548b62a8d60345a988386fc84ba6bc95484008f6362f93160ef3e563",
  "deployedBytecode": "0x608060408181526004908136101561001657600080fd5b600092833560e01c90816301ffc9a7146126475750806306bddb19146122ba57806306fdde03146121f4578063081812fc146121995780630908853214612094578063095ea7b314611fa65780630b35610214611f675780630dd0a04214611ed557806316c6ca9714611d6957806317aee9ba14611d0f57806318160ddd14611cd157806323b872dd14611cb95780632a2758be14611ca25780633438c9b314611c665780633558587714611c475780633d92e4f014611c0557806342842e0e14611aea57806346623ecd14611a90578063492f7e04146119a65780634c0e5ec91461194c5780634d81e4331461192a5783816351cff8d914611895575080635ca2ddf1146117c45780636352211e1461176957806370a08231146116a0578063728ac96a1461166257806378d20fa21461157d5780638da5cb5b1461152957806395d89b411461140a578063985e593714611344578063a22cb4651461126f578063a582fc5614611222578063b3f05b97146111df578063b4d7ec711461115d578063b88d4fde14610f8d578063c6dc80fb14610f5e578063c87b56dd14610e25578063cf30901214610de2578063d12a4c9814610d11578063d451a75714610c40578063e985e9c514610bc7578063eb60633a14610b7d578063ed9978c714610abe578063f0503e8014610a3e578063f1eeb61b146109f2578063f232b8e61461089f578063f2fde38b146107e95763f8e93ef91461023657600080fd5b61023f366129f7565b9161080a548351908181029181830414901517156107bd5760ff61080b541661076057340361070457610809926102768454612efc565b809455610800815161028c61080d918254612eb3565b80915510156106a75761029e81613748565b918251926020938482012080885261080c9081865260ff878a20541661064b578852845284872092600193847fffffffffffffffffffffffffffffffffffffffffffffffffffffffffffffff00825416179055855191606083019167ffffffffffffffff92848110848211176105c6578852835285830190815286830191898352888a526108088752878a20935180519082821161061f5768010000000000000000821161061f5788908c87548489558484828210610604575b5050505001858c52888c20888d5b8481106105f25750925050508401915180519182116105c6576103938261038d8554612833565b85612f83565b87908b601f841160011461051d579260029492819261041a98979592610512575b50507fffffffffffffffffffffffffffffffffffffffffffffffffffffffffffffffff828a1b9260031b1c19161790555b51151591019060ff7fffffffffffffffffffffffffffffffffffffffffffffffffffffffffffffff0083541691151516179055565b610425331515613c73565b8486526002835273ffffffffffffffffffffffffffffffffffffffff84872054166104b657509060029133865260038252838620908154019055838552528220337fffffffffffffffffffffffff000000000000000000000000000000000000000082541617905533827fddf252ad1be2c89b69c2b068fc378daa952ba7f163c4a11628f55a4df523b3ef8180a480f35b606490838551917f08c379a0000000000000000000000000000000000000000000000000000000008352820152600e60248201527f414c52454144595f4d494e5445440000000000000000000000000000000000006044820152fd5b0151905038806103b4565b909183927fffffffffffffffffffffffffffffffffffffffffffffffffffffffffffffffe08a95168684528b8420935b8c8282106105b05750509161041a989795939185600298969410610579575b505050811b0190556103e5565b01517fffffffffffffffffffffffffffffffffffffffffffffffffffffffffffffffff60f88460031b161c1916905538808061056c565b8385015186558c9790950194938401930161054d565b60248b6041887f4e487b7100000000000000000000000000000000000000000000000000000000835252fd5b8b845194019381840155018990610366565b838b6106169552209182019101612f6c565b8c388484610358565b60248c6041897f4e487b7100000000000000000000000000000000000000000000000000000000835252fd5b606484878951917f08c379a0000000000000000000000000000000000000000000000000000000008352820152601760248201527f4d4e454d4f4e49435f414c52454144595f4d494e5445440000000000000000006044820152fd5b50602060649251917f08c379a0000000000000000000000000000000000000000000000000000000008352820152602060248201527f4d494e5441424c455f574f52445f4c494d49545f524541434845445f323034386044820152fd5b602060649251917f08c379a0000000000000000000000000000000000000000000000000000000008352820152600560248201527f50524943450000000000000000000000000000000000000000000000000000006044820152fd5b50602060649251917f08c379a0000000000000000000000000000000000000000000000000000000008352820152600660248201527f4c4f434b454400000000000000000000000000000000000000000000000000006044820152fd5b6024856011847f4e487b7100000000000000000000000000000000000000000000000000000000835252fd5b833461089c5760207ffffffffffffffffffffffffffffffffffffffffffffffffffffffffffffffffc36011261089c577fffffffffffffffffffffffff00000000000000000000000000000000000000006108426129d4565b6108079081549073ffffffffffffffffffffffffffffffffffffffff9061086c8284163314612cef565b1692839116179055337f8be0079c531659141344cd1fd0a4f28419497f9722a3daafe3b4186f6b6457e08380a380f35b80fd5b50346109ee57602091827ffffffffffffffffffffffffffffffffffffffffffffffffffffffffffffffffc3601126109ea5783813580825261080880865284832085519081888254918281520191865288862090865b8a8282106109d357505050509061091181610916930382612735565b613a75565b91835285526001848320019261095e61092d61409b565b865195869485947f0403faa4000000000000000000000000000000000000000000000000000000008652850161403b565b038173__$31c0833bf1f99a480d7ff9c84446810f95$__5af49384156109c857809461099e575b505061099a905192828493845283019061296e565b0390f35b61099a929450906109c0913d8091833e6109b88183612735565b810190613f87565b929038610985565b8251903d90823e3d90fd5b835485528c985090930192600192830192016108f5565b8380fd5b8280fd5b5090346109ee5760207ffffffffffffffffffffffffffffffffffffffffffffffffffffffffffffffffc3601126109ee578160209360ff9235815261080c855220541690519015158152f35b5090346109ee5760207ffffffffffffffffffffffffffffffffffffffffffffffffffffffffffffffffc3601126109ee57918192358152610808602052209060ff6002825193610a9c85610a958160018501612c3a565b0386612735565b015416610ab2825193838594855284019061296e565b90151560208301520390f35b50829034610b7957817ffffffffffffffffffffffffffffffffffffffffffffffffffffffffffffffffc360112610b79578051918183019083821067ffffffffffffffff831117610b4d575061099a93508152600782527f656e676c6973680000000000000000000000000000000000000000000000000060208301525191829160208352602083019061296e565b806041867f4e487b71000000000000000000000000000000000000000000000000000000006024945252fd5b5080fd5b50823461089c5760207ffffffffffffffffffffffffffffffffffffffffffffffffffffffffffffffffc36011261089c5750610bbc61099a9235613a39565b905191829182612b51565b838234610b7957807ffffffffffffffffffffffffffffffffffffffffffffffffffffffffffffffffc360112610b795760ff81602093610c056129d4565b610c0d6129b1565b73ffffffffffffffffffffffffffffffffffffffff91821683526005875283832091168252855220549151911615158152f35b50346109ee57602091827ffffffffffffffffffffffffffffffffffffffffffffffffffffffffffffffffc3601126109ea5783813580825261080880865284832085519081888254918281520191865288862090865b8a828210610cfa57505050509061091181610cb2930382612735565b91835285526001848320019261095e610cc961409b565b865195869485947ffcb70035000000000000000000000000000000000000000000000000000000008652850161403b565b835485528c98509093019260019283019201610c96565b50346109ee57602091827ffffffffffffffffffffffffffffffffffffffffffffffffffffffffffffffffc3601126109ea5783813580825261080880865284832085519081888254918281520191865288862090865b8a828210610dcb57505050509061091181610d83930382612735565b91835285526001848320019261095e610d9a61409b565b865195869485947f74a06ecf000000000000000000000000000000000000000000000000000000008652850161403b565b835485528c98509093019260019283019201610d67565b838234610b7957817ffffffffffffffffffffffffffffffffffffffffffffffffffffffffffffffffc360112610b795760209060ff61080b541690519015158152f35b50346109ee576020917ffffffffffffffffffffffffffffffffffffffffffffffffffffffffffffffffc908382360112610f5a57808591359081835260028652610e8973ffffffffffffffffffffffffffffffffffffffff86852054161515612d54565b8183526108089384875285842086519081898254918281520191875289872090875b8b828210610f4357505050508161091161095e9493610ecb930382612735565b958486528852600187862001610f34610ee261409b565b91610f248a51998a9889987f88508639000000000000000000000000000000000000000000000000000000008a52890152608060248901526084880190613fe6565b9084878303016044880152612c3a565b9184830301606485015261296e565b835485528d99509093019260019283019201610eab565b8480fd5b838234610b795761099a90610f7a610f75366129f7565b613748565b905191829160208352602083019061296e565b5090346109ee5760807ffffffffffffffffffffffffffffffffffffffffffffffffffffffffffffffffc3601126109ee57610fc66129d4565b90610fcf6129b1565b916044359260643567ffffffffffffffff811161115957610ff39036908501612c0c565b9285885261080860205261101060ff6002898b2001541615613cd8565b61101b868483613d3d565b823b15958615611033575b8861103088613f22565b80f35b9091929380959650875195869485937f150b7a0200000000000000000000000000000000000000000000000000000000998a8652339086015273ffffffffffffffffffffffffffffffffffffffff80961660248601526044850152606484016080905281608485015260a48401378881830160a40152601f017fffffffffffffffffffffffffffffffffffffffffffffffffffffffffffffffe01681010360a40192169181875a94602095f19283156111505750611030927fffffffff00000000000000000000000000000000000000000000000000000000918591611122575b501614388080808080611026565b611143915060203d8111611149575b61113b8183612735565b810190613eea565b38611114565b503d611131565b513d85823e3d90fd5b8680fd5b833461089c57807ffffffffffffffffffffffffffffffffffffffffffffffffffffffffffffffffc36011261089c5761080660017fffffffffffffffffffffffffffffffffffffffffffffffffffffffffffffff0082546111d873ffffffffffffffffffffffffffffffffffffffff8260081c163314612e4e565b1617905580f35b838234610b7957817ffffffffffffffffffffffffffffffffffffffffffffffffffffffffffffffffc360112610b795760209060ff610806541690519015158152f35b5090346109ee5760207ffffffffffffffffffffffffffffffffffffffffffffffffffffffffffffffffc3601126109ee57359161080083101561089c5750610f7a61099a92600601612886565b838234610b7957807ffffffffffffffffffffffffffffffffffffffffffffffffffffffffffffffffc360112610b79576112a76129d4565b906024359081151591828103610f5a5761131790338652600560205273ffffffffffffffffffffffffffffffffffffffff8387209516948587526020528286209060ff7fffffffffffffffffffffffffffffffffffffffffffffffffffffffffffffff0083541691151516179055565b519081527f17307eab39ab6107e8899845ad3d59bd9653f200f220920489ca2b5937696c3160203392a380f35b50346109ee5782611354366129f7565b9261136761136185613748565b94613a75565b906113a461137361409b565b855196879485947ffcb700350000000000000000000000000000000000000000000000000000000086528501614072565b038173__$31c0833bf1f99a480d7ff9c84446810f95$__5af4918215611400578361099a94936113e3575b50505191829160208352602083019061296e565b6113f89293503d8091833e6109b88183612735565b9038806113cf565b81513d85823e3d90fd5b838234610b7957817ffffffffffffffffffffffffffffffffffffffffffffffffffffffffffffffffc360112610b795780519082600180549161144c83612833565b808652928281169081156114e35750600114611487575b5050506114758261099a940383612735565b5191829160208352602083019061296e565b94508085527fb10e2d527612073b26eecdfd717e6a320cf44b4afac2b0732d9fcbe2b7fa0cf65b8286106114cb5750505061147582602061099a9582010194611463565b805460208787018101919091529095019481016114ae565b61099a9750869350602092506114759491507fffffffffffffffffffffffffffffffffffffffffffffffffffffffffffffff001682840152151560051b82010194611463565b838234610b7957817ffffffffffffffffffffffffffffffffffffffffffffffffffffffffffffffffc360112610b795760209073ffffffffffffffffffffffffffffffffffffffff61080754169051908152f35b50346109ee5760207ffffffffffffffffffffffffffffffffffffffffffffffffffffffffffffffffc3601126109ee5781359067ffffffffffffffff82116109ea576015600b6115d36116029436908701612c0c565b949073ffffffffffffffffffffffffffffffffffffffff956115fb8761080754163314612cef565b36916127f7565b9283519060018201901b6a61000080600a3d393df30017845201910184f0918215611657575061080e91167fffffffffffffffffffffffff000000000000000000000000000000000000000082541617905580f35b63301164258452601cfd5b838234610b7957817ffffffffffffffffffffffffffffffffffffffffffffffffffffffffffffffffc360112610b795760209061080a549051908152f35b50919034610b795760207ffffffffffffffffffffffffffffffffffffffffffffffffffffffffffffffffc360112610b795773ffffffffffffffffffffffffffffffffffffffff6116ef6129d4565b1690811561170c5760208480858581526003845220549051908152f35b60649060208551917f08c379a0000000000000000000000000000000000000000000000000000000008352820152600c60248201527f5a45524f5f4144445245535300000000000000000000000000000000000000006044820152fd5b50823461089c5760207ffffffffffffffffffffffffffffffffffffffffffffffffffffffffffffffffc36011261089c575073ffffffffffffffffffffffffffffffffffffffff6117bc60209335612db9565b915191168152f35b50346109ee57602091827ffffffffffffffffffffffffffffffffffffffffffffffffffffffffffffffffc3601126109ea5783813580825261080880865284832085519081888254918281520191865288862090865b8a82821061187e57505050509061091181611836930382612735565b91835285526001848320019261095e61184d61409b565b865195869485947feb5cf9ab000000000000000000000000000000000000000000000000000000008652850161403b565b835485528c9850909301926001928301920161181a565b82818534610b795760207ffffffffffffffffffffffffffffffffffffffffffffffffffffffffffffffffc360112610b79573573ffffffffffffffffffffffffffffffffffffffff908181168091036109ee57828092916118fd829361080754163314612cef565b47905af1903d156119245761191c906119153d6127bd565b9051612735565b1561089c5780f35b5061191c565b838234610b795761099a90611941610911366129f7565b905191829182612b8c565b50346109ee578261195c366129f7565b9261196961136185613748565b906113a461197561409b565b855196879485947f0403faa40000000000000000000000000000000000000000000000000000000086528501614072565b50829034610b7957817ffffffffffffffffffffffffffffffffffffffffffffffffffffffffffffffffc360112610b79576119e361080d54612fd9565b918080610809545b8083106119ff5784518061099a8882612b51565b819594955b8383526020610808815287842054821015611a7b578784208054831015611a4f5784528320810154611a4a9190611a44611a3d88612efc565b9789612f29565b52612efc565b611a04565b60248560328c7f4e487b7100000000000000000000000000000000000000000000000000000000835252fd5b505091611a8a90959495612efc565b916119eb565b50346109ee5782611aa0366129f7565b92611aad61136185613748565b906113a4611ab961409b565b855196879485947feb5cf9ab0000000000000000000000000000000000000000000000000000000086528501614072565b5090346109ee57611afa36612a94565b929190838652610808602052611b1960ff600287892001541615613cd8565b611b24848284613d3d565b803b15938415611b39575b8661103086613f22565b60209293945060a49087875195869485937f150b7a0200000000000000000000000000000000000000000000000000000000998a8652339086015273ffffffffffffffffffffffffffffffffffffffff8093166024860152604485015260806064850152826084850152165af19283156111505750611030927fffffffff00000000000000000000000000000000000000000000000000000000918591611be7575b50161438808080611b2f565b611bff915060203d81116111495761113b8183612735565b38611bdb565b50823461089c5760207ffffffffffffffffffffffffffffffffffffffffffffffffffffffffffffffffc36011261089c575061194161091161099a9335613a39565b838234610b795761099a90611941610911611c6136612af4565b613028565b838234610b7957817ffffffffffffffffffffffffffffffffffffffffffffffffffffffffffffffffc360112610b795761099a90610f7a61409b565b838234610b795761099a90610bbc611c6136612af4565b833461089c57611030611ccb36612a94565b91613d3d565b838234610b7957817ffffffffffffffffffffffffffffffffffffffffffffffffffffffffffffffffc360112610b7957602090610809549051908152f35b50346109ee5782611d1f366129f7565b92611d2c61136185613748565b906113a4611d3861409b565b855196879485947f74a06ecf0000000000000000000000000000000000000000000000000000000086528501614072565b50346109ee57827ffffffffffffffffffffffffffffffffffffffffffffffffffffffffffffffffc3601126109ee578051620100009267ffffffffffffffff9184810183811182821017611ea9578452855b858110611e9b575050825193840191821184831017611e6f57508152600683835b6108008210611e525750505051906020928383018484526201002084019291945b6108008610611e0c5784840385f35b9091928180611e45837fffffffffffffffffffffffffffffffffffffffffffffffffffffffffffffffe08960019603018752875161296e565b9501930195019490611dfd565b600160208192611e6186612886565b815201930191019091611ddc565b8460416024927f4e487b7100000000000000000000000000000000000000000000000000000000835252fd5b606082820152602001611dbb565b6024876041857f4e487b7100000000000000000000000000000000000000000000000000000000835252fd5b505034610b795760207ffffffffffffffffffffffffffffffffffffffffffffffffffffffffffffffffc360112610b795735801515809103610b7957611f3573ffffffffffffffffffffffffffffffffffffffff61080754163314612cef565b61080b9060ff7fffffffffffffffffffffffffffffffffffffffffffffffffffffffffffffff00835416911617905580f35b50823461089c5760207ffffffffffffffffffffffffffffffffffffffffffffffffffffffffffffffffc36011261089c5750610f7a61099a9235613b2f565b5090346109ee57817ffffffffffffffffffffffffffffffffffffffffffffffffffffffffffffffffc3601126109ee57611fde6129d4565b9060243592838552600260205273ffffffffffffffffffffffffffffffffffffffff90818187205416928333148015612075575b61201b90612de9565b8587526020528520921691827fffffffffffffffffffffffff00000000000000000000000000000000000000008254161790557f8c5be1e5ebec7d5bd14f71427d1e84f3dd0314c0f7b2291e5b200ac8c7c3b9258480a480f35b508387526005602090815282882033895290528187205460ff16612012565b50829034610b7957807ffffffffffffffffffffffffffffffffffffffffffffffffffffffffffffffffc360112610b795782356120cf6129b1565b936120d982612db9565b73ffffffffffffffffffffffffffffffffffffffff3391160361213c5750612105816002949533613d3d565b835261080860205282200160017fffffffffffffffffffffffffffffffffffffffffffffffffffffffffffffff0082541617905580f35b60649060208451917f08c379a0000000000000000000000000000000000000000000000000000000008352820152600a60248201527f4f4e4c595f4f574e4552000000000000000000000000000000000000000000006044820152fd5b5090346109ee5760207ffffffffffffffffffffffffffffffffffffffffffffffffffffffffffffffffc3601126109ee57816020938273ffffffffffffffffffffffffffffffffffffffff9335825285522054169051908152f35b838234610b7957817ffffffffffffffffffffffffffffffffffffffffffffffffffffffffffffffffc360112610b795780519082805461223381612833565b808552916001918083169081156114e3575060011461225e575050506114758261099a940383612735565b80809650527f290decd9548b62a8d60345a988386fc84ba6bc95484008f6362f93160ef3e5635b8286106122a25750505061147582602061099a9582010194611463565b80546020878701810191909152909501948101612285565b50919034610b7957827ffffffffffffffffffffffffffffffffffffffffffffffffffffffffffffffffc360112610b795780359267ffffffffffffffff908185116109ea57366023860112156109ea5784830135612317816127a5565b9461232483519687612735565b8186526020968787016024809460051b830101913683116109ea57848101915b83831061260c575050505081359160ff6108065461237c73ffffffffffffffffffffffffffffffffffffffff8260081c163314612e4e565b166125b15761238c875184612eb3565b937fffffffffffffffffffffffffffffffffffffffffffffffffffffffffffffffff9485810190811161258657610800111561252b5750815b8751811015612527576123d88189612f29565b516123e38286612eb3565b6108008110156124fc57600601908051908882116124d1576124098261038d8554612833565b8b90601f831160011461244b5761243b94939291879183612440575b5050888260011b9260031b1c1916179055612efc565b6123c5565b015190503880612425565b8387528c872091907fffffffffffffffffffffffffffffffffffffffffffffffffffffffffffffffe08416888f5b8282106124ba575050908461243b979695949392106124a3575b505050600190811b019055612efc565b01518960f88460031b161c19169055388080612493565b60018596829396860151815501950193018f612479565b848660418c7f4e487b7100000000000000000000000000000000000000000000000000000000835252fd5b838560328b7f4e487b7100000000000000000000000000000000000000000000000000000000835252fd5b8280f35b600e6064928a899351937f08c379a00000000000000000000000000000000000000000000000000000000085528401528201527f696e64657820746f6f20686967680000000000000000000000000000000000006044820152fd5b828460118a7f4e487b7100000000000000000000000000000000000000000000000000000000835252fd5b8560096064928a8751937f08c379a00000000000000000000000000000000000000000000000000000000085528401528201527f66696e616c697a656400000000000000000000000000000000000000000000006044820152fd5b823588811161264357820136604382011215612643578b916126388392369060448b82013591016127f7565b815201920191612344565b8580fd5b849084346109ee5760207ffffffffffffffffffffffffffffffffffffffffffffffffffffffffffffffffc3601126109ee57357fffffffff0000000000000000000000000000000000000000000000000000000081168091036109ee57602092507f01ffc9a700000000000000000000000000000000000000000000000000000000811490811561270b575b81156126e1575b5015158152f35b7f5b5e139f00000000000000000000000000000000000000000000000000000000915014836126da565b7f80ac58cd00000000000000000000000000000000000000000000000000000000811491506126d3565b90601f7fffffffffffffffffffffffffffffffffffffffffffffffffffffffffffffffe0910116810190811067ffffffffffffffff82111761277657604052565b7f4e487b7100000000000000000000000000000000000000000000000000000000600052604160045260246000fd5b67ffffffffffffffff81116127765760051b60200190565b67ffffffffffffffff811161277657601f017fffffffffffffffffffffffffffffffffffffffffffffffffffffffffffffffe01660200190565b929192612803826127bd565b916128116040519384612735565b82948184528183011161282e578281602093846000960137010152565b600080fd5b90600182811c9216801561287c575b602083101461284d57565b7f4e487b7100000000000000000000000000000000000000000000000000000000600052602260045260246000fd5b91607f1691612842565b906040519182600082549261289a84612833565b90818452600194858116908160001461290957506001146128c6575b50506128c492500383612735565b565b9093915060005260209081600020936000915b8183106128f15750506128c4935082010138806128b6565b855488840185015294850194879450918301916128d9565b90506128c49550602093507fffffffffffffffffffffffffffffffffffffffffffffffffffffffffffffff0091501682840152151560051b82010138806128b6565b60005b83811061295e5750506000910152565b818101518382015260200161294e565b907fffffffffffffffffffffffffffffffffffffffffffffffffffffffffffffffe0601f6020936129aa8151809281875287808801910161294b565b0116010190565b6024359073ffffffffffffffffffffffffffffffffffffffff8216820361282e57565b6004359073ffffffffffffffffffffffffffffffffffffffff8216820361282e57565b6020807ffffffffffffffffffffffffffffffffffffffffffffffffffffffffffffffffc83011261282e576004359167ffffffffffffffff831161282e578060238401121561282e578260040135612a4e816127a5565b93612a5c6040519586612735565b81855260248486019260051b82010192831161282e57602401905b828210612a85575050505090565b81358152908301908301612a77565b7ffffffffffffffffffffffffffffffffffffffffffffffffffffffffffffffffc606091011261282e5773ffffffffffffffffffffffffffffffffffffffff90600435828116810361282e5791602435908116810361282e579060443590565b60207ffffffffffffffffffffffffffffffffffffffffffffffffffffffffffffffffc82011261282e576004359067ffffffffffffffff821161282e578060238301121561282e57816024612b4e936004013591016127f7565b90565b6020908160408183019282815285518094520193019160005b828110612b78575050505090565b835185529381019392810192600101612b6a565b602080820190808352835180925260408301928160408460051b8301019501936000915b848310612bc05750505050505090565b9091929394958480612bfc837fffffffffffffffffffffffffffffffffffffffffffffffffffffffffffffffc086600196030187528a5161296e565b9801930193019194939290612bb0565b9181601f8401121561282e5782359167ffffffffffffffff831161282e576020838186019501011161282e57565b9060009291805491612c4b83612833565b918282526001938481169081600014612cad5750600114612c6d575b50505050565b90919394506000526020928360002092846000945b838610612c99575050505001019038808080612c67565b805485870183015294019385908201612c82565b91505060209495507fffffffffffffffffffffffffffffffffffffffffffffffffffffffffffffff009193501683830152151560051b01019038808080612c67565b15612cf657565b60646040517f08c379a000000000000000000000000000000000000000000000000000000000815260206004820152600c60248201527f554e415554484f52495a454400000000000000000000000000000000000000006044820152fd5b15612d5b57565b60646040517f08c379a000000000000000000000000000000000000000000000000000000000815260206004820152600a60248201527f4e4f545f4d494e544544000000000000000000000000000000000000000000006044820152fd5b600052600260205273ffffffffffffffffffffffffffffffffffffffff60406000205416906128c4821515612d54565b15612df057565b60646040517f08c379a000000000000000000000000000000000000000000000000000000000815260206004820152600e60248201527f4e4f545f415554484f52495a45440000000000000000000000000000000000006044820152fd5b15612e5557565b60646040517f08c379a000000000000000000000000000000000000000000000000000000000815260206004820152600d60248201527f6f6e6c79206465706c6f796572000000000000000000000000000000000000006044820152fd5b91908201809211612ec057565b7f4e487b7100000000000000000000000000000000000000000000000000000000600052601160045260246000fd5b91908203918211612ec057565b7fffffffffffffffffffffffffffffffffffffffffffffffffffffffffffffffff8114612ec05760010190565b8051821015612f3d5760209160051b010190565b7f4e487b7100000000000000000000000000000000000000000000000000000000600052603260045260246000fd5b818110612f77575050565b60008155600101612f6c565b9190601f8111612f9257505050565b6128c4926000526020600020906020601f840160051c83019310612fbe575b601f0160051c0190612f6c565b9091508190612fb1565b908151811015612f3d570160200190565b90612fe3826127a5565b612ff06040519182612735565b8281527fffffffffffffffffffffffffffffffffffffffffffffffffffffffffffffffe061301e82946127a5565b0190602036910137565b90604090815183519360208561304282978584860161294b565b8360009485928101039060025afa15613692578151938051918683019267ffffffffffffffff93818110858211176136655783528481529484955b82518710156131f1576130908784612fc8565b5160f81c8451858101818110888211176131c457908b92918752600880825283820192843685378a5b82811061310e575050509161310893613102926130f694895195836130e7889551809288808901910161294b565b8401915180938684019061294b565b01038084520182612735565b96612efc565b9561307d565b9091929394506007818103908111613197578e9695949392916131699183901c600116613171577f30000000000000000000000000000000000000000000000000000000000000005b8d1a6131638287612fc8565b53612efc565b9594956130b9565b7f3100000000000000000000000000000000000000000000000000000000000000613157565b60248c7f4e487b710000000000000000000000000000000000000000000000000000000081526011600452fd5b6024897f4e487b710000000000000000000000000000000000000000000000000000000081526041600452fd5b919395509691958651956101208701908782109082111761366557875261010090818752813685890137855b8281106135c157505050825195868060031b04600814871517156134cb577f3ffffffffffffffffffffffffffffffffffffffffffffffffffffffffffffffe600197881b1661326b81613703565b96865b82811061357f57505050906132b49291519581613294889351809286808701910161294b565b82016132a88251809386808501910161294b565b01038086520184612735565b8051908160031b918083046008149015171561355257906132d9915160021c90612eb3565b926007840180941161352557600b809404916132f483612fd9565b94815b8481106133075750505050505090565b8181028181048314821517156134f8578482018083116134cb57838102908082048514901517156134cb578751808210156134c457505b61335061334b8383612eef565b613703565b91805b828110613477575050508390858086905b613380575b5050509061337b91611a44828a612f29565b6132f7565b8251811015613472577f31000000000000000000000000000000000000000000000000000000000000007fff000000000000000000000000000000000000000000000000000000000000006133d58386612fc8565b5116146133ec575b6133e690612efc565b81613364565b9290506133fa838351612eef565b7fffffffffffffffffffffffffffffffffffffffffffffffffffffffffffffffff81019081116134455760ff81116134455761343d8892836133e6931b90612eb3565b9390506133dd565b6024877f4e487b710000000000000000000000000000000000000000000000000000000081526011600452fd5b613369565b807fff000000000000000000000000000000000000000000000000000000000000006134a66134bf938d612fc8565b51166131636134b58584612eef565b918a1a9187612fc8565b613353565b905061333e565b6024857f4e487b710000000000000000000000000000000000000000000000000000000081526011600452fd5b6024847f4e487b710000000000000000000000000000000000000000000000000000000081526011600452fd5b6024827f4e487b710000000000000000000000000000000000000000000000000000000081526011600452fd5b6024837f4e487b710000000000000000000000000000000000000000000000000000000081526011600452fd5b807fff000000000000000000000000000000000000000000000000000000000000006135ae6135bc9385612fc8565b5116891a613163828c612fc8565b61326e565b60ff818103908111613638579060018361360d931c1615600014613612577f30000000000000000000000000000000000000000000000000000000000000005b881a613163828b612fc8565b61321d565b7f3100000000000000000000000000000000000000000000000000000000000000613601565b6024887f4e487b710000000000000000000000000000000000000000000000000000000081526011600452fd5b6024867f4e487b710000000000000000000000000000000000000000000000000000000081526041600452fd5b508251903d90823e3d90fd5b156136a557565b60646040517f08c379a000000000000000000000000000000000000000000000000000000000815260206004820152601260248201527f496e76616c696420776f726420636f756e7400000000000000000000000000006044820152fd5b9061370d826127bd565b61371a6040519182612735565b8281527fffffffffffffffffffffffffffffffffffffffffffffffffffffffffffffffe061301e82946127bd565b80519061376a60039283808210159182613a2d575b82613a22575b505061369e565b805190600b9283830292808404851490151715612ec05761378a83613703565b9260005b8351811015613831576137a18185612f29565b5160005b8781106137bc5750506137b790612efc565b61378e565b600a818103908111612ec0576000906001901b83161561382b57507f0100000000000000000000000000000000000000000000000000000000000000905b888402918483048a1485151715612ec05761316361381b8361382695612eb3565b9160001a918a612fc8565b6137a5565b906137fa565b50915093919250613846602182048092612eef565b9061385282861c613703565b926000925b84518410156139265760005b6008908181101561390e5785891b918683041486151715612ec05761389361388d82600194612eb3565b89612fc8565b51918060f893841c146138b1575b506138ac9150612efc565b613863565b6138bb8789612fc8565b51831c92600793838503948511612ec05760ff7fff00000000000000000000000000000000000000000000000000000000000000936138ac961b1617901b1660001a6139078789612fc8565b53386138a1565b50509261391d90929192612efc565b92919091613857565b919394925094604091825193866000868083516139498160209b8c80980161294b565b8101039060025afa15613a17576000519160005b87811061396f57505050505050505090565b61398261397c8284612eb3565b84612fc8565b5160f81c81861c88811015612f3d5760078084168103908111612ec057866001921a901c16036139ba576139b590612efc565b61395d565b6064878751907f08c379a00000000000000000000000000000000000000000000000000000000082526004820152600f60248201527f4661696c656420636865636b73756d00000000000000000000000000000000006044820152fd5b83513d6000823e3d90fd5b061590508338613763565b6018811115925061375d565b611c61612b4e91600381101580613a6a575b80613a5f575b613a5a9061369e565b613b2f565b506003810615613a51565b506018811115613a4b565b908151917fffffffffffffffffffffffffffffffffffffffffffffffffffffffffffffffe0613abc613aa6856127a5565b94613ab46040519687612735565b8086526127a5565b0160005b818110613b1e57505060005b8151811015613b1a57613adf8183612f29565b5190610800821015612f3d57613afa613b1592600601612886565b613b048287612f29565b52613b0f8186612f29565b50612efc565b613acc565b5050565b806060602080938801015201613ac0565b600381101580613c68575b80613c5d575b613b499061369e565b7fffffffffffffffffffffffffffffffffffffffffffffffffffffffffffffffff430190438211612ec0575a9160405190602093848301913260601b835240603484015242605484015260748301526074825260a082019180831067ffffffffffffffff841117612776576003926040525190209104808060051b04831481151715612ec05760021b7f1ffffffffffffffffffffffffffffffffffffffffffffffffffffffffffffffc16613bfd81613703565b92600090815b838110613c1257505050505090565b81811015613c30578085613c2b921a6131638289612fc8565b613c03565b6024837f4e487b710000000000000000000000000000000000000000000000000000000081526032600452fd5b506003810615613b40565b506018811115613b3a565b15613c7a57565b60646040517f08c379a000000000000000000000000000000000000000000000000000000000815260206004820152601160248201527f494e56414c49445f524543495049454e540000000000000000000000000000006044820152fd5b15613cdf57565b60646040517f08c379a000000000000000000000000000000000000000000000000000000000815260206004820152600560248201527f424f554e440000000000000000000000000000000000000000000000000000006044820152fd5b6000838152602061080881526040613d5e60ff600283862001541615613cd8565b8583526002825273ffffffffffffffffffffffffffffffffffffffff94858083862054169516948503613e8d5790613dd9867fddf252ad1be2c89b69c2b068fc378daa952ba7f163c4a11628f55a4df523b3ef9594931696613dc1881515613c73565b863314908115613e70575b8115613e5a575b50612de9565b848352600382528083207fffffffffffffffffffffffffffffffffffffffffffffffffffffffffffffffff815401905585835280832060018154019055868352600282526004818420927fffffffffffffffffffffffff000000000000000000000000000000000000000093888582541617905552822090815416905580a4565b9050888552600484528285205416331438613dd3565b8786526005855283862033875285528386205460ff169150613dcc565b6064838351907f08c379a00000000000000000000000000000000000000000000000000000000082526004820152600a60248201527f57524f4e475f46524f4d000000000000000000000000000000000000000000006044820152fd5b9081602091031261282e57517fffffffff000000000000000000000000000000000000000000000000000000008116810361282e5790565b15613f2957565b60646040517f08c379a000000000000000000000000000000000000000000000000000000000815260206004820152601060248201527f554e534146455f524543495049454e54000000000000000000000000000000006044820152fd5b60208183031261282e5780519067ffffffffffffffff821161282e570181601f8201121561282e578051613fba816127bd565b92613fc86040519485612735565b8184526020828401011161282e57612b4e916020808501910161294b565b90815180825260208092019182818360051b85019501936000915b8483106140115750505050505090565b909192939495848061402b83856001950387528a5161296e565b9801930193019194939290614001565b9161406490614056612b4e9593606086526060860190613fe6565b908482036020860152612c3a565b91604081840391015261296e565b916140649061408d612b4e9593606086526060860190613fe6565b90848203602086015261296e565b73ffffffffffffffffffffffffffffffffffffffff61080e5416803b908115614130576020612b4e91601f8460017fffffffffffffffffffffffffffffffffffffffffffffffffffffffffffffffff6141239701916040519461ffe0603e83011686016040528386526000878701958693880101523c6040519485925180928585019061294b565b8101038084520182612735565b6311052bb46000526004601cfdfea26469706673582212206f536bdbedd5f280ef65c9db3ae72af8daaeac02e57d09ea5e12d3a0ccc7c4ff64736f6c63430008110033",
  "libraries": {
    "Render": "0x5FbDB2315678afecb367f032d93F642f64180aa3"
  },
  "devdoc": {
    "kind": "dev",
    "methods": {
      "bind(uint256,address)": {
        "params": {
          "id": "tokenId of the poem to be bound"
        }
      },
      "getMintedIndices()": {
        "details": "Intended to be used offchain"
      }
    },
    "version": 1
  },
  "userdoc": {
    "kind": "user",
    "methods": {
      "bind(uint256,address)": {
        "notice": "This method allows a seed poem to be bound to a specific address that is derived from the seed itself."
      }
    },
    "version": 1
  },
  "storageLayout": {
    "storage": [
      {
        "astId": 193,
        "contract": "src/SeedPoems.sol:SeedPoems",
        "label": "name",
        "offset": 0,
        "slot": "0",
        "type": "t_string_storage"
      },
      {
        "astId": 195,
        "contract": "src/SeedPoems.sol:SeedPoems",
        "label": "symbol",
        "offset": 0,
        "slot": "1",
        "type": "t_string_storage"
      },
      {
        "astId": 206,
        "contract": "src/SeedPoems.sol:SeedPoems",
        "label": "_ownerOf",
        "offset": 0,
        "slot": "2",
        "type": "t_mapping(t_uint256,t_address)"
      },
      {
        "astId": 210,
        "contract": "src/SeedPoems.sol:SeedPoems",
        "label": "_balanceOf",
        "offset": 0,
        "slot": "3",
        "type": "t_mapping(t_address,t_uint256)"
      },
      {
        "astId": 259,
        "contract": "src/SeedPoems.sol:SeedPoems",
        "label": "getApproved",
        "offset": 0,
        "slot": "4",
        "type": "t_mapping(t_uint256,t_address)"
      },
      {
        "astId": 265,
        "contract": "src/SeedPoems.sol:SeedPoems",
        "label": "isApprovedForAll",
        "offset": 0,
        "slot": "5",
        "type": "t_mapping(t_address,t_mapping(t_address,t_bool))"
      },
      {
        "astId": 737,
        "contract": "src/SeedPoems.sol:SeedPoems",
        "label": "wordlist",
        "offset": 0,
        "slot": "6",
        "type": "t_array(t_string_storage)2048_storage"
      },
      {
        "astId": 739,
        "contract": "src/SeedPoems.sol:SeedPoems",
        "label": "finalized",
        "offset": 0,
        "slot": "2054",
        "type": "t_bool"
      },
      {
        "astId": 741,
        "contract": "src/SeedPoems.sol:SeedPoems",
        "label": "deployer",
        "offset": 1,
        "slot": "2054",
        "type": "t_address"
      },
      {
        "astId": 115,
        "contract": "src/SeedPoems.sol:SeedPoems",
        "label": "owner",
        "offset": 0,
        "slot": "2055",
        "type": "t_address"
      },
      {
        "astId": 1676,
        "contract": "src/SeedPoems.sol:SeedPoems",
        "label": "seeds",
        "offset": 0,
        "slot": "2056",
        "type": "t_mapping(t_uint256,t_struct(Seed)1671_storage)"
      },
      {
        "astId": 1678,
        "contract": "src/SeedPoems.sol:SeedPoems",
        "label": "totalSupply",
        "offset": 0,
        "slot": "2057",
        "type": "t_uint256"
      },
      {
        "astId": 1681,
        "contract": "src/SeedPoems.sol:SeedPoems",
        "label": "wordPrice",
        "offset": 0,
        "slot": "2058",
        "type": "t_uint256"
      },
      {
        "astId": 1684,
        "contract": "src/SeedPoems.sol:SeedPoems",
        "label": "locked",
        "offset": 0,
        "slot": "2059",
        "type": "t_bool"
      },
      {
        "astId": 1688,
        "contract": "src/SeedPoems.sol:SeedPoems",
        "label": "isEntropyMinted",
        "offset": 0,
        "slot": "2060",
        "type": "t_mapping(t_bytes32,t_bool)"
      },
      {
        "astId": 1691,
        "contract": "src/SeedPoems.sol:SeedPoems",
        "label": "totalWords",
        "offset": 0,
        "slot": "2061",
        "type": "t_uint256"
      },
      {
        "astId": 1693,
        "contract": "src/SeedPoems.sol:SeedPoems",
        "label": "font",
        "offset": 0,
        "slot": "2062",
        "type": "t_address"
      }
    ],
    "types": {
      "t_address": {
        "encoding": "inplace",
        "label": "address",
        "numberOfBytes": "20"
      },
      "t_array(t_string_storage)2048_storage": {
        "base": "t_string_storage",
        "encoding": "inplace",
        "label": "string[2048]",
        "numberOfBytes": "65536"
      },
      "t_array(t_uint256)dyn_storage": {
        "base": "t_uint256",
        "encoding": "dynamic_array",
        "label": "uint256[]",
        "numberOfBytes": "32"
      },
      "t_bool": {
        "encoding": "inplace",
        "label": "bool",
        "numberOfBytes": "1"
      },
      "t_bytes32": {
        "encoding": "inplace",
        "label": "bytes32",
        "numberOfBytes": "32"
      },
      "t_bytes_storage": {
        "encoding": "bytes",
        "label": "bytes",
        "numberOfBytes": "32"
      },
      "t_mapping(t_address,t_bool)": {
        "encoding": "mapping",
        "key": "t_address",
        "label": "mapping(address => bool)",
        "numberOfBytes": "32",
        "value": "t_bool"
      },
      "t_mapping(t_address,t_mapping(t_address,t_bool))": {
        "encoding": "mapping",
        "key": "t_address",
        "label": "mapping(address => mapping(address => bool))",
        "numberOfBytes": "32",
        "value": "t_mapping(t_address,t_bool)"
      },
      "t_mapping(t_address,t_uint256)": {
        "encoding": "mapping",
        "key": "t_address",
        "label": "mapping(address => uint256)",
        "numberOfBytes": "32",
        "value": "t_uint256"
      },
      "t_mapping(t_bytes32,t_bool)": {
        "encoding": "mapping",
        "key": "t_bytes32",
        "label": "mapping(bytes32 => bool)",
        "numberOfBytes": "32",
        "value": "t_bool"
      },
      "t_mapping(t_uint256,t_address)": {
        "encoding": "mapping",
        "key": "t_uint256",
        "label": "mapping(uint256 => address)",
        "numberOfBytes": "32",
        "value": "t_address"
      },
      "t_mapping(t_uint256,t_struct(Seed)1671_storage)": {
        "encoding": "mapping",
        "key": "t_uint256",
        "label": "mapping(uint256 => struct SeedPoems.Seed)",
        "numberOfBytes": "32",
        "value": "t_struct(Seed)1671_storage"
      },
      "t_string_storage": {
        "encoding": "bytes",
        "label": "string",
        "numberOfBytes": "32"
      },
      "t_struct(Seed)1671_storage": {
        "encoding": "inplace",
        "label": "struct SeedPoems.Seed",
        "members": [
          {
            "astId": 1666,
            "contract": "src/SeedPoems.sol:SeedPoems",
            "label": "indices",
            "offset": 0,
            "slot": "0",
            "type": "t_array(t_uint256)dyn_storage"
          },
          {
            "astId": 1668,
            "contract": "src/SeedPoems.sol:SeedPoems",
            "label": "entropy",
            "offset": 0,
            "slot": "1",
            "type": "t_bytes_storage"
          },
          {
            "astId": 1670,
            "contract": "src/SeedPoems.sol:SeedPoems",
            "label": "bound",
            "offset": 0,
            "slot": "2",
            "type": "t_bool"
          }
        ],
        "numberOfBytes": "96"
      },
      "t_uint256": {
        "encoding": "inplace",
        "label": "uint256",
        "numberOfBytes": "32"
      }
    }
  }
}